:020000040800F2
:1000000000500020052C0008552800085B28000837
:1000100061280008672800086D280008000000001B
:10002000000000000000000000000000732800082D
:100030007F280008000000008B280008992800088D
:100040004D2C00084D2C00084D2C00084D2C0008AC
:100050004D2C00084D2C00084D2C00084D2C00089C
:100060004D2C00084D2C00084D2C0008D928000804
:100070004D2C00084D2C00084D2C00084D2C00087C
:100080004D2C00084D2C0008ED2800084D2C0008D0
:100090004D2C00084D2C00084D2C00084D2C00085C
:1000A0004D2C0008012900084D2C00084D2C00089B
:1000B0004D2C00084D2C00084D2C00084D2C00083C
:1000C0004D2C00084D2C00084D2C00084D2C00082C
:1000D0004D2C00084D2C00084D2C00081529000857
:1000E0004D2C00084D2C00084D2C0008000000008D
:1000F0000000000000000000000000000000000000
:0C01000000000000000000005FF808F1A3
:1001100010B5054C237833B9044B13B10448AFF341
:1001200000800123237010BD0C020020000000009D
:10013000F4E3000808B5034B1BB103490348AFF3D0
:10014000008008BD0000000010020020F4E3000859
:10015000034613F8012B002AFBD1181A0138704707
:1001600081F0004102E000BF83F0004330B54FEA68
:1001700041044FEA430594EA050F08BF90EA020FD5
:100180001FBF54EA000C55EA020C7FEA645C7FEA68
:10019000655C00F0E2804FEA5454D4EB5555B8BF8B
:1001A0006D420CDD2C4480EA020281EA030382EAFC
:1001B000000083EA010180EA020281EA0303362D8E
:1001C00088BF30BD11F0004F4FEA01314FF4801C61
:1001D0004CEA113102D0404261EB410113F0004F73
:1001E0004FEA03334CEA133302D0524263EB43032A
:1001F00094EA050F00F0A780A4F10104D5F1200EC8
:100200000DDB02FA0EFC22FA05F2801841F1000122
:1002100003FA0EF2801843FA05F359410EE0A5F1F6
:1002200020050EF1200E012A03FA0EFC28BF4CF027
:10023000020C43FA05F3C01851EBE37101F00045DD
:1002400007D54FF0000EDCF1000C7EEB00006EEBEA
:100250000101B1F5801F1BD3B1F5001F0CD3490874
:100260005FEA30004FEA3C0C04F101044FEA4452CB
:1002700012F5800F80F09A80BCF1004F08BF5FEA52
:10028000500C50F1000041EB045141EA050130BD32
:100290005FEA4C0C404141EB0101013C28BFB1F544
:1002A000801FE9D291F0000F04BF01460020B1FA8F
:1002B00081F308BF2033A3F10B03B3F120020CDA62
:1002C0000C3208DD02F1140CC2F10C0201FA0CF040
:1002D00021FA02F10CE002F11402D8BFC2F1200CA5
:1002E00001FA02F120FA0CFCDCBF41EA0C0190405B
:1002F000E41AA2BF01EB0451294330BD6FEA0404A4
:100300001F3C1CDA0C340EDC04F11404C4F120028E
:1003100020FA04F001FA02F340EA030021FA04F3A0
:1003200045EA030130BDC4F10C04C4F1200220FAF7
:1003300002F001FA04F340EA0300294630BD21FA35
:1003400004F0294630BD94F0000F83F4801306BFFB
:1003500081F480110134013D4EE77FEA645C18BFEF
:100360007FEA655C29D094EA050F08BF90EA020F86
:1003700005D054EA000C04BF1946104630BD91EA7E
:10038000030F1EBF0021002030BD5FEA545C05D181
:100390004000494128BF41F0004130BD14F58004C0
:1003A0003CBF01F5801130BD01F0004545F0FE4134
:1003B00041F470014FF0000030BD7FEA645C1ABF69
:1003C000194610467FEA655C1CBF0B46024650EAA0
:1003D000013406BF52EA033591EA030F41F40021CC
:1003E00030BD00BF90F0000F04BF0021704730B552
:1003F0004FF4806404F132044FF000054FF0000127
:1004000050E700BF90F0000F04BF0021704730B5E7
:100410004FF4806404F1320410F0004548BF4042BC
:100420004FF000013EE700BF42004FEAE2014FEA11
:1004300031014FEA02701FBF12F07F4393F07F4FEC
:1004400081F06051704732F07F4208BF704793F0EF
:100450007F4F04BF41F40021704730B54FF4607402
:1004600001F0004521F000411CE700BF50EA010205
:1004700008BF704730B54FF000050AE050EA0102AE
:1004800008BF704730B511F0004502D5404261EB1E
:1004900041014FF4806404F132045FEA915C3FF45F
:1004A000D8AE4FF003025FEADC0C18BF03325FEAFC
:1004B000DC0C18BF033202EBDC02C2F1200300FAAD
:1004C00003FC20FA02F001FA03FE40EA0E0021FAD2
:1004D00002F11444BDE600BF70B54FF0FF0C4CF4C0
:1004E000E06C1CEA11541DBF1CEA135594EA0C0F72
:1004F00095EA0C0F00F0DEF82C4481EA030621EAAD
:100500004C5123EA4C5350EA013518BF52EA0335E7
:1005100041F4801143F4801338D0A0FB02CE4FF099
:100520000005E1FB02E506F00042E0FB03E54FF0C9
:100530000006E1FB03569CF0000F18BF4EF0010EC1
:10054000A4F1FF04B6F5007F64F5407404D25FEABD
:100550004E0E6D4146EB060642EAC62141EA555170
:100560004FEAC52040EA5E504FEACE2EB4F1FD0CB2
:1005700088BFBCF5E06F1ED8BEF1004F08BF5FEA30
:10058000500E50F1000041EB045170BD06F00046E2
:1005900046EA010140EA020081EA0301B4EB5C048F
:1005A000C2BFD4EB0C0541EA045170BD41F4801187
:1005B0004FF0000E013C00F3AB8014F1360FDEBFAC
:1005C000002001F0004170BDC4F10004203C35DA88
:1005D0000C341BDC04F11404C4F1200500FA05F30B
:1005E00020FA04F001FA05F240EA020001F00042AC
:1005F00021F0004110EBD37021FA04F642EB060122
:100600005EEA430E08BF20EAD37070BDC4F10C044B
:10061000C4F1200500FA04F320FA05F001FA04F20F
:1006200040EA020001F0004110EBD37041F10001FB
:100630005EEA430E08BF20EAD37070BDC4F1200506
:1006400000FA05F24EEA020E20FA04F301FA05F26E
:1006500043EA020321FA04F001F0004121FA04F216
:1006600020EA020000EBD3705EEA430E08BF20EAE6
:10067000D37070BD94F0000F0FD101F00046400020
:1006800041EB010111F4801F08BF013CF7D041EAA2
:10069000060195F0000F18BF704703F000465200A6
:1006A00043EB030313F4801F08BF013DF7D043EA77
:1006B0000603704794EA0C0F0CEA135518BF95EA2D
:1006C0000C0F0CD050EA410618BF52EA4306D1D1B4
:1006D00081EA030101F000414FF0000070BD50EAD3
:1006E000410606BF1046194652EA430619D094EA5D
:1006F0000C0F02D150EA013613D195EA0C0F05D147
:1007000052EA03361CBF104619460AD181EA03019A
:1007100001F0004141F0FE4141F470014FF0000052
:1007200070BD41F0FE4141F4780170BD70B54FF0ED
:10073000FF0C4CF4E06C1CEA11541DBF1CEA13556D
:1007400094EA0C0F95EA0C0F00F0A7F8A4EB05044F
:1007500081EA030E52EA03354FEA013100F0888046
:100760004FEA03334FF0805545EA131343EA12630F
:100770004FEA022245EA111545EA10654FEA0026C4
:100780000EF000419D4208BF964244F1FD0404F57D
:10079000407402D25B084FEA3202B61A65EB0305D9
:1007A0005B084FEA32024FF480104FF4002CB6EB96
:1007B000020E75EB030E22BFB61A754640EA0C0016
:1007C0005B084FEA3202B6EB020E75EB030E22BF56
:1007D000B61A754640EA5C005B084FEA3202B6EB97
:1007E000020E75EB030E22BFB61A754640EA9C0056
:1007F0005B084FEA3202B6EB020E75EB030E22BF26
:10080000B61A754640EADC0055EA060E18D04FEAE3
:10081000051545EA16754FEA06164FEAC30343EA83
:1008200052734FEAC2025FEA1C1CC0D111F4801F50
:100830000BD141EA00014FF000004FF0004CB6E749
:1008400011F4801F04BF01430020B4F1FD0C88BFE8
:10085000BCF5E06F3FF6AFAEB5EB030C04BFB6EBF3
:10086000020C5FEA500C50F1000041EB045170BDE6
:100870000EF0004E4EEA113114EB5C04C2BFD4EB13
:100880000C0541EA045170BD41F480114FF0000E97
:10089000013C90E645EA060E8DE60CEA135594EA13
:1008A0000C0F08BF95EA0C0F3FF43BAF94EA0C0F16
:1008B0000AD150EA01347FF434AF95EA0C0F7FF48B
:1008C00025AF104619462CE795EA0C0F06D152EADF
:1008D00003353FF4FDAE1046194622E750EA4106C3
:1008E00018BF52EA43067FF4C5AE50EA41047FF4D4
:1008F0000DAF52EA43057FF4EBAE12E74FF0FF3C39
:1009000006E000BF4FF0010C02E000BF4FF0010C09
:100910004DF804CD4FEA410C7FEA6C5C4FEA430C82
:1009200018BF7FEA6C5C1BD001B050EA410C0CBFD1
:1009300052EA430C91EA030F02BF90EA020F002033
:10094000704710F1000F91EA030F58BF994208BF9A
:1009500090422CBFD8176FEAE37040F00100704757
:100960004FEA410C7FEA6C5C02D150EA013C07D1AE
:100970004FEA430C7FEA6C5CD6D152EA033CD3D0F9
:100980005DF8040B704700BF8446104662468C46F3
:100990001946634600E000BF01B5FFF7B7FF002826
:1009A00048BF10F1000F01BD4DF808EDFFF7F4FF4F
:1009B0000CBF012000205DF808FB00BF4DF808EDDA
:1009C000FFF7EAFF34BF012000205DF808FB00BFFD
:1009D0004DF808EDFFF7E0FF94BF012000205DF81F
:1009E00008FB00BF4DF808EDFFF7CEFF94BF0120D4
:1009F00000205DF808FB00BF4DF808EDFFF7C4FFCD
:100A000034BF012000205DF808FB00BF4FEA410C15
:100A10007FEA6C5C02D150EA013C0AD14FEA430CF8
:100A20007FEA6C5C02D152EA033C02D14FF0000035
:100A300070474FF0010070474FEA410212F5001273
:100A400015D211D56FF47873B3EB625212D94FEA15
:100A5000C12343F0004343EA505311F0004F23FAFF
:100A600002F018BF404270474FF00000704750EA54
:100A7000013005D111F0004008BF6FF00040704711
:100A80004FF00000704700BF4A0011D212F500126B
:100A900011D20DD56FF47873B3EB62520ED44FEAD6
:100AA000C12343F0004343EA505323FA02F0704756
:100AB0004FF00000704750EA013002D14FF0FF3094
:100AC00070474FF0000070474FEA4102B2F1E04337
:100AD00024BFB3F5001CDCF1FE5C0DD901F0004C25
:100AE0004FEAC0024CEA5070B2F1004F40EB830075
:100AF00008BF20F00100704711F0804F21D113F1A1
:100B00003872BCBF01F00040704741F480114FEAD9
:100B10005252C2F11802C2F1200C10FA0CF320FA62
:100B200002F018BF40F001004FEAC1234FEAD3237F
:100B300003FA0CFC40EA0C0023FA02F34FEA4303E9
:100B4000CCE77FEA625307D150EA01331EBF4FF072
:100B5000FE4040F44000704701F0004040F0FE408D
:100B600040F40000704700BF80F0004002E000BF8A
:100B700081F0004142001FBF5FEA410392EA030F88
:100B80007FEA226C7FEA236C6AD04FEA1262D2EBD2
:100B90001363C1BFD218414048404140B8BF5B42D7
:100BA000192B88BF704710F0004F40F4000020F070
:100BB0007F4018BF404211F0004F41F4000121F086
:100BC0007F4118BF494292EA030F3FD0A2F10102D0
:100BD00041FA03FC10EB0C00C3F1200301FA03F10E
:100BE00000F0004302D5494260EB4000B0F5000F31
:100BF00013D3B0F1807F06D340084FEA310102F1F0
:100C00000102FE2A51D2B1F1004F40EBC25008BFA1
:100C100020F0010040EA03007047490040EB00006B
:100C2000013A28BFB0F5000FEDD2B0FA80FCACF16C
:100C3000080CB2EB0C0200FA0CF0AABF00EBC25099
:100C400052421843BCBFD0401843704792F0000F87
:100C500081F4000106BF80F400000132013BB5E7DA
:100C60004FEA41037FEA226C18BF7FEA236C21D050
:100C700092EA030F04D092F0000F08BF08467047B5
:100C800090EA010F1CBF0020704712F07F4F04D183
:100C9000400028BF40F00040704712F100723CBF96
:100CA00000F50000704700F0004343F0FE4040F4C0
:100CB000000070477FEA226216BF08467FEA23637E
:100CC0000146420206BF5FEA412390EA010F40F469
:100CD000800070474FF0000304E000BF10F00043B5
:100CE00048BF40425FEA000C08BF704743F096439C
:100CF00001464FF000001CE050EA010208BF7047B7
:100D00004FF000030AE000BF50EA010208BF70473D
:100D100011F0004302D5404261EB41015FEA010C52
:100D200002BF84460146002043F0B64308BFA3F14A
:100D30008053A3F50003BCFA8CF2083AA3EBC2532C
:100D400010DB01FA02FC634400FA02FCC2F120024B
:100D5000BCF1004F20FA02F243EB020008BF20F082
:100D60000100704702F1200201FA02FCC2F12002E8
:100D700050EA4C0021FA02F243EB020008BF20EADD
:100D8000DC7070474FF0FF0C1CEAD0521EBF1CEA0B
:100D9000D15392EA0C0F93EA0C0F6FD01A4480EAF9
:100DA000010C400218BF5FEA41211ED04FF00063E2
:100DB00043EA501043EA5111A0FB01310CF000400E
:100DC000B1F5000F3EBF490041EAD3715B0040EA34
:100DD000010062F17F02FD2A1DD8B3F1004F40EB04
:100DE000C25008BF20F00100704790F0000F0CF0D7
:100DF000004C08BF49024CEA502040EA51207F3A9B
:100E0000C2BFD2F1FF0340EAC250704740F4000075
:100E10004FF00003013A5DDC12F1190FDCBF00F066
:100E200000407047C2F10002410021FA02F1C2F114
:100E3000200200FA02FC5FEA310040F1000053EAB0
:100E40004C0308BF20EADC70704792F0000F00F0FE
:100E5000004C02BF400010F4000F013AF9D040EA04
:100E60000C0093F0000F01F0004C02BF490011F498
:100E7000000F013BF9D041EA0C018FE70CEAD15396
:100E800092EA0C0F18BF93EA0C0F0AD030F0004C16
:100E900018BF31F0004CD8D180EA010000F00040CA
:100EA000704790F0000F17BF90F0004F084691F088
:100EB000000F91F0004F14D092EA0C0F01D14202C2
:100EC0000FD193EA0C0F03D14B0218BF084608D18B
:100ED00080EA010000F0004040F0FE4040F40000D5
:100EE000704740F0FE4040F4400070474FF0FF0C68
:100EF0001CEAD0521EBF1CEAD15392EA0C0F93EAAF
:100F00000C0F69D0A2EB030280EA010C49024FEA00
:100F1000402037D04FF0805343EA111143EA1013B9
:100F20000CF000408B4238BF5B0042F17D024FF471
:100F3000000C8B4224BF5B1A40EA0C00B3EB510F4C
:100F400024BFA3EB510340EA5C00B3EB910F24BF35
:100F5000A3EB910340EA9C00B3EBD10F24BFA3EBBA
:100F6000D10340EADC001B0118BF5FEA1C1CE0D182
:100F7000FD2A3FF650AF8B4240EBC25008BF20F035
:100F8000010070470CF0004C4CEA50207F32C2BF89
:100F9000D2F1FF0340EAC250704740F400004FF026
:100FA0000003013A37E792F0000F00F0004C02BF57
:100FB000400010F4000F013AF9D040EA0C0093F021
:100FC000000F01F0004C02BF490011F4000F013B7B
:100FD000F9D041EA0C0195E70CEAD15392EA0C0FE3
:100FE00008D142027FF47DAF93EA0C0F7FF470AF1B
:100FF000084676E793EA0C0F04D14B023FF44CAF5E
:1010000008466EE730F0004C18BF31F0004CCAD1F2
:1010100030F000427FF45CAF31F000437FF43CAF2E
:101020005FE700BF4FF0FF3C06E000BF4FF0010C50
:1010300002E000BF4FF0010C4DF804CD4FEA400232
:101040004FEA41037FEA226C18BF7FEA236C11D07C
:1010500001B052EA530C18BF90EA010F58BFB2EB2F
:10106000030088BFC81738BF6FEAE17018BF40F0AF
:10107000010070477FEA226C02D15FEA402C05D163
:101080007FEA236CE4D15FEA412CE1D05DF8040BE8
:10109000704700BF844608466146FFE70FB5FFF77B
:1010A000C9FF002848BF10F1000F0FBD4DF808ED33
:1010B000FFF7F4FF0CBF012000205DF808FB00BF24
:1010C0004DF808EDFFF7EAFF34BF012000205DF87E
:1010D00008FB00BF4DF808EDFFF7E0FF94BF0120CB
:1010E00000205DF808FB00BF4DF808EDFFF7D2FFC8
:1010F00094BF012000205DF808FB00BF4DF808ED0B
:10110000FFF7C8FF34BF012000205DF808FB00BFD7
:101110004FEA4002B2F1FE4F0FD34FF09E03B3EB04
:1011200012620DD94FEA002343F0004310F0004F44
:1011300023FA02F018BF404270474FF0000070479A
:1011400012F1610F01D1420205D110F0004008BF39
:101150006FF0004070474FF00000704742000ED221
:10116000B2F1FE4F0BD34FF09E03B3EB126209D4E2
:101170004FEA002343F0004323FA02F070474FF098
:101180000000704712F1610F01D1420202D14FF00D
:10119000FF3070474FF00000704700BF38B505467C
:1011A0000C460022002328462146FFF707FC28B9F9
:1011B00028462146BDE8384000F00AB8284604F128
:1011C000004100F005F8404261EB410138BD00BF2D
:1011D000D0B500220B4B06460F46FFF77DF9FFF70F
:1011E00053FC0446FFF7FEF80022074BFFF774F9A3
:1011F00002460B4630463946FEF7B6FFFFF744FC81
:101200002146D0BD0000F03D0000F04180B584B023
:1012100000AF3B1D00221A605A609A6000237B6079
:101220000123BB600123FB603B1D1946054802F00A
:101230002BF90346002B01D001F050F900BF103705
:10124000BD4680BD8422002080B584B000AF3B1D28
:1012500000221A605A609A6001237B600123BB6000
:101260000123FB603B1D1946054802F00DF90346BA
:10127000002B01D001F032F900BF1037BD4680BD10
:101280008422002080B584B000AF3B1D00221A608C
:101290005A609A6002237B600123BB600123FB60DC
:1012A0003B1D1946054802F0EFF80346002B01D01C
:1012B00001F014F900BF1037BD4680BD8422002024
:1012C00080B584B000AF3B1D00221A605A609A605E
:1012D00004237B600123BB600123FB603B1D194697
:1012E000054802F0D1F80346002B01D001F0F6F8D2
:1012F00000BF1037BD4680BD8422002090B484B06A
:1013000000AF03460A46FB801346BB800023FB6008
:101310004BE02A4AFB6832F81330FA889A4241D3EC
:10132000274AFB6832F81330BA889A423AD3FB68EE
:101330000A2B0FD0FB680133204A32F81330FA88A9
:101340009A422FD8FB6801331D4A32F81330BA880D
:101350009A4227D81B4AFB6813441A78FB8817481F
:10136000F96830F811105B1AF96801311548415CD1
:101370000C461448F96801440978611A03FB01F12D
:10138000FB6801330D4830F813301C460B48FB68EE
:1013900030F81330E31A91FBF3F3DBB21344FB7222
:1013A000FB7A06E0FB680133FB60FB680A2BB0DDCB
:1013B000002318461037BD4690BC704784E70008EC
:1013C0009CE70008B4E7000880B584B000AF7860FF
:1013D00016497868FFF7CCFB034615491846FFF716
:1013E00085FD034613491846FFF7CCFC0346FB6016
:1013F0004FF00001F868FFF763FE0346002B03D0AF
:101400004FF00003FB6008E00A49F868FFF776FE3A
:101410000346002B01D0074BFB60F868FFF79EFEE8
:101420000346DBB218461037BD4680BD0000584267
:101430000000F0410000C8422DE9F043ADF2644DD8
:1014400010AF01F005FC00F0EDFD00F0BFFF00F073
:101450009FFF00F043FE00F071FE00F045FF00F03A
:101460006DFF00F0A1FE00F0F1FE04F057FE002237
:10147000C949CA4806F034FF1322C949C94806F0D1
:1014800079FFC84B03F58053DB681946C54807F060
:10149000A9FDC449C44808F0D3F8C24807F077FD55
:1014A00001F00AFBFFF7B2FEC04801F02FFD4FF438
:1014B0007A71BE4801F004FEBC4801F007FF034604
:1014C0001A46BB4B1A60BA4B1B681846FEF79AFFC8
:1014D000A3A3D3E90023FEF7FFFF02460B46104605
:1014E0001946A1A3D3E90023FFF720F902460B46D2
:1014F00010461946FFF7C8FA03469AB2AD4B1A8058
:10150000AC4B1B881846FEF77DFF99A3D3E9002357
:10151000FEF7E2FF02460B461046194696A3D3E9B2
:101520000023FFF703F902460B4610461946FFF762
:10153000ABFA03469AB2A04B1A809C4801F094FD86
:10154000FFF782FE994801F0E1FC4FF47A71974869
:1015500001F0B6FD954801F0B9FE03461A46974BD7
:101560001A60964B1B681846FEF74CFF7CA3D3E924
:101570000023FEF7B1FF02460B46104619467AA338
:10158000D3E90023FFF7D2F802460B46104619466E
:10159000FFF77AFA03469AB2894B1A80884B1B8868
:1015A0001846FEF72FFF72A3D3E90023FEF794FF3E
:1015B00002460B46104619466FA3D3E90023FFF7F6
:1015C000B5F802460B4610461946FFF75DFA03468A
:1015D0009AB27C4B1A807B4B1B881846FEF712FF91
:1015E0004FF00002784BFFF7A1F802460B46104679
:1015F0001946FFF749FA03469AB2744B1A806B48B2
:1016000001F032FDFFF73EFE684801F07FFC4FF429
:101610007A71664801F054FD644801F057FE0346B4
:101620001A466B4B1A606A4B1B681846FEF7EAFEB7
:101630004BA3D3E90023FEF74FFF02460B461046AB
:10164000194649A3D3E90023FFF770F802460B4679
:1016500010461946FFF718FA03469AB25D4B1A80F6
:101660005C4B1B881846FEF7CDFE45A3D3E900234B
:10167000FEF732FF02460B461046194642A3D3E955
:101680000023FFF753F802460B4610461946FFF7B2
:10169000FBF903469AB2504B1A804F4B1B881A46EF
:1016A000D2001A441146C800114602460A445200AC
:1016B00013449B009AB2494B1A80484B1B881A4628
:1016C0001201D31A9B009AB2454B1A80444B1B88D7
:1016D0001846FEF797FE2EA3D3E90023FEF7FCFE83
:1016E00002460B4610461946FFF7CEF903469AB25A
:1016F0003C4B1A802D4801F0B7FCFFF7E1FD2B4869
:1017000001F004FC4FF47A71284801F0D9FC274815
:1017100001F0DCFD03461A46334B1A60324B1B685E
:101720001846FEF76FFE0EA3D3E90023FEF7D4FEA2
:1017300002460B46104619460BA3D3E90023FEF7D9
:10174000F5FF02460B4610461946FFF7BDF9034662
:10175000264A1360264B1B684CE000BFAFF30080A5
:101760006666666666660A400000000000FEAF40DE
:10177000CDCCCCCCCC8C51409A9999999999014077
:101780009A99999999D94B40CDCCCCCCCCCC1240DC
:1017900092E9D0E97937563F10E40008280200208A
:1017A00014E40008581200201CE4000884220020E1
:1017B000A02400207024002072240020A4240020F3
:1017C00074240020762400200000E83F78240020C4
:1017D000A82400207A2400207C2400207E240020DD
:1017E0008024002082240020AC240020B424002087
:1017F00008000020A44A126811461846FFF7B8F9FD
:1018000003461A46A14B1A609F4B1C689F4B1B68EE
:101810009F4A126811461846FFF768FB03461946AF
:101820002046FFF763FB03461A469A4B1A60994B12
:101830001B68994A126811461846FFF757FB034682
:101840001846FEF7F1FD02460B46104619460CF00D
:10185000EDFB02460B4610461946FFF735F90346E5
:101860008E4A13608D4B1B688D4A126811461846CC
:10187000FFF73CFB03461C468A4B1B6819464FF09A
:101880007E50FFF733FB034619462046FFF772F9F7
:10189000034619464FF07E50FFF728FB03461A46D1
:1018A000814B1A60804B1B681846FEF7BDFD74A380
:1018B000D3E90023FEF758FC02460B4610461946B2
:1018C0004FF00002794BFEF74FFC02460B461046E4
:1018D0001946FFF7F9F80346754A1360754801F099
:1018E000C3FB754B1B88A7F81E34744B1B88A7F8E5
:1018F0001C34B7F81C24B7F81E3411461846FFF7FD
:10190000FDFC034687F81B34322387F81A346A4BF0
:101910001B881846FFF7DEF903461846FFF754FD0B
:1019200003461A46664B1A7001224FF4005165486F
:1019300002F003FC0821644802F0E8FB0346002B98
:1019400003D0624B01221A8002E0604B00221A8011
:101950004FF400415E4802F0D9FB0346002B03D050
:101960005C4B01221A8002E05A4B00221A804FF48D
:101970008051554802F0CAFB0346002B03D0564B5A
:1019800001221A8002E0544B00221A804FF40051C9
:101990004D4802F0BBFB0346002B03D04F4B012206
:1019A0001A8002E04D4B00221A804FF480414648D5
:1019B00002F0ACFB0346002B03D0494B01221A80F6
:1019C00002E0474B00221A804FF400413E4802F0EB
:1019D0009DFB0346002B03D0424B01221A8002E0FC
:1019E000404B00221A801021374802F08FFB03463B
:1019F000002B09D03C4B01221A8001224FF40051E8
:101A0000304802F09AFB02E0374B00221A80802116
:101A10002D4802F07BFB0346002B03D0334B012201
:101A20001A8002E0314B00221A804021264802F041
:101A30006DFB0346002B03D02D4B01221A8002E0E0
:101A40002B4B00221A8020211F4802F05FFB034627
:101A5000002B03D0274B01221A8002E0254B0022E5
:101A60001A804FF48071184802F050FB0346002B97
:101A700044D0214B01221A8043E000BFAFF3008025
:101A80006666666666127140B4240020B8240020A1
:101A90000C000020BC24002004000020C0240020F2
:101AA0000000002010000020C424002000805B40C3
:101AB000C8240020842200207224002078240020E2
:101AC000B024002000100140000C014084240020BC
:101AD0000008014086240020882400208A24002059
:101AE0008C240020902400208E24002092240020AA
:101AF000942400209624002098240020164B0022D5
:101B00001A804FF40071154802F000FB0346002BC9
:101B100003D0134B01221A8002E0114B00221A80DD
:101B2000104B1B88012B07D00F4B1B88012B03D0B8
:101B300097F81A34052B1DD801224FF480410B4829
:101B400002F0FBFA01224FF40041084802F0F5FAD6
:101B5000074B01221A801CE098240020000C014051
:101B60009A2400208A2400208C24002000100140A8
:101B70009C24002000224FF48041B14802F0DDFA9D
:101B800000224FF40041AE4802F0D7FAAD4B0022DC
:101B90001A8032220021AC4807F010FE32220021C8
:101BA000AA4807F00BFE32220021A94807F006FEE2
:101BB00032220021A74807F001FE32220021A64868
:101BC00007F0FCFD32220021A44807F0F7FD322285
:101BD0000021A34807F0F2FD32220021A14807F0BE
:101BE000EDFD32220021A04807F0E8FD322200215D
:101BF0009E4807F0E3FD322200219D4807F0DEFDFC
:101C0000322200219B4807F0D9FD322200219A4858
:101C100007F0D4FD32220021984807F0CFFD322290
:101C20000021974807F0CAFD32220021954807F0AD
:101C3000C5FD32220021944807F0C0FD3222002168
:101C4000924807F0BBFD32220021914807F0B6FD13
:101C5000904B1B881A4690497B4808F029FC8F4B13
:101C60001B881A468E49794808F022FC8D4B1B8848
:101C70001A468D49764808F01BFC8C4B1B681846A9
:101C8000FEF7D2FB02460B468949724808F010FC69
:101C9000884B1B881A4688496F4808F009FC874B17
:101CA0001B881A4686496D4808F002FC854B1B8844
:101CB0001A4685496A4808F0FBFB844B1B881A4684
:101CC0008349684808F0F4FB824B1B881A46824916
:101CD000654808F0EDFB814B1B881A468049634834
:101CE00008F0E6FB7F4B1B881A467F49604808F0E6
:101CF000DFFB7E4B1B881A467D495E4808F0D8FB07
:101D00007C4B1B881A467C495B4808F0D1FB7B4B17
:101D10001B881A467A49594808F0CAFB794B1B8838
:101D20001A467949564808F0C3FB784B1B881A4677
:101D30007749544808F0BCFB97F81B341A4675499C
:101D4000524808F0B5FB97F81A341A4672494E48C3
:101D500008F0AEFB714B1B781A4671494C4808F0ED
:101D6000A7FB13226F49704806F004FB6E4B03F586
:101D70008053DB6819466C4807F034F96A493248E9
:101D800007F05EFC6849314807F05AFC6649314863
:101D900007F056FC6449304807F052FC62492F486E
:101DA00007F04EFC60492E4807F04AFC5E492D487A
:101DB00007F046FC5C492C4807F042FC5A492B4886
:101DC00007F03EFC58492A4807F03AFC5649294892
:101DD00007F036FC5449284807F032FC524927489E
:101DE00007F02EFC5049264807F02AFC4E492548AA
:101DF00007F026FC4C49254807F022FC4A492248B6
:101E000007F01EFC4849224807F01AFC464947489B
:101E100007F016FC4449464807F012FC424807F018
:101E2000B6F81C4B1B8898461C4B1B8899461D4BCB
:101E30001B887B621D4B1B681846FFF769F979E028
:101E4000001001409C240020CC240020002500200C
:101E500034250020682500209C250020D025002066
:101E600004260020382600206C260020A026002012
:101E7000D4260020082700203C27002070270020BF
:101E8000A4270020D82700200C280020402800206C
:101E9000742800207224002038E4000878240020F0
:101EA00054E40008822400206CE40008C8240020C8
:101EB00080E400088424002098E4000886240020A0
:101EC000A8E4000888240020B8E400088A24002040
:101ED000CCE400088C240020E0E4000890240020DA
:101EE000F4E400088E2400200CE500089224002071
:101EF0001CE500089424002030E50008962400200A
:101F000044E50008982400205CE500089A2400209D
:101F100070E5000884E5000894E50008B02400207E
:101F2000A4E5000814E4000858120020A8280020A6
:101F3000DC28002005462D4B1B883B622C4B1B8860
:101F4000FB612C4B1B88BB612B4B1B887B612B4B94
:101F50001B883B612A4B1B88FB602A4B1B88BB609C
:101F6000294B1B887B60294B1B883B60284B1B88B7
:101F70001E46284B1B881C46274B1B88194697F882
:101F80001A2497F81B3407F12C000F930E920D9131
:101F90000C940B963A680A927A680992BA68089289
:101FA000FA6807923A6906927A690592BA690492C8
:101FB000FA6903923A6A029201957B6A00934B4652
:101FC0004246164908F074FAC7F81404D7F81434D6
:101FD0009AB207F12C014FF47A73114803F0CAFA50
:101FE0004FF47A7000F096FEFFF75CBA842400206C
:101FF00086240020882400208A2400208C240020AD
:10200000902400208E24002092240020942400207C
:1020100096240020982400209A240020C0E500087F
:10202000E023002080B594B000AF07F128032822F8
:102030000021184607F0C2FB07F1140300221A60C2
:102040005A609A60DA601A613B1D00221A605A6079
:102050009A60DA600123BB624FF48033FB62002395
:102060003B630123BB6302237B644FF48033BB6477
:102070004FF4E013FB6407F12803184602F076F8EA
:102080000346002B01D000F029FA0F237B610223C5
:10209000BB610023FB614FF480633B6200237B62E2
:1020A00007F114030221184602F0E2FA0346002B5E
:1020B00001D000F013FA02237B604FF40043FB6071
:1020C0003B1D184602F062FC0346002B01D000F0D5
:1020D00005FA00BF5037BD4680BD000080B584B012
:1020E00000AF3B1D00221A605A609A60114B124AE1
:1020F0001A60104B4FF480729A600E4B01221A73D3
:102100000C4B00221A750B4B4FF46022DA61094B1D
:1021100000225A60074B01221A61064800F01EFE99
:102120000346002B01D000F0D9F900BF1037BD469F
:1021300080BD00BF842200200024014080B500AF94
:10214000174B184A1A60164B4FF482725A60144BA0
:1021500000229A60124B0022DA60114B00221A61B1
:102160000F4B00225A610E4B4FF400729A610C4BD8
:102170001022DA610A4B00221A62094B00225A62CD
:10218000074B00229A62064B0A22DA62044802F0E8
:1021900069FD0346002B01D000F0A0F900BF80BD0F
:1021A000F82200200030014080B586B000AF07F172
:1021B000080300221A605A609A60DA603B460022E7
:1021C0001A605A601F4B204A1A601E4B4EF65F225F
:1021D0005A601C4B00229A601A4B40F2CF72DA60B0
:1021E000184B00221A61174B00225A61154B00222E
:1021F0009A61144802F0BAFD0346002B01D000F0AA
:102200006DF94FF48053BB6007F1080319460D4880
:1022100002F003FF0346002B01D000F05FF900231A
:102220003B6000237B603B461946064803F0E2F81A
:102230000346002B01D000F051F900BF1837BD460E
:1022400080BD00BF50230020002C014080B586B027
:1022500000AF07F1080300221A605A609A60DA6042
:102260003B4600221A605A601D4B1E4A1A601C4BE6
:102270003B225A601A4B00229A60194B4FF6FE72AD
:10228000DA60174B00221A61154B00229A6114483C
:1022900002F06CFD0346002B01D000F01FF94FF453
:1022A0008053BB6007F1080319460D4802F0B5FEE4
:1022B0000346002B01D000F011F900233B600023FE
:1022C0007B603B461946064803F094F80346002B12
:1022D00001D000F003F900BF1837BD4680BD00BF34
:1022E000982300200004004080B500AF114B124A33
:1022F0001A60104B4FF416525A600E4B00229A602F
:102300000C4B0022DA600B4B00221A61094B0C22A5
:102310005A61084B00229A61064B0022DA61054897
:1023200003F0D8F80346002B01D000F0D7F800BF27
:1023300080BD00BFE02300200038014080B500AF21
:10234000114B124A1A60104B4FF416525A600E4B42
:1023500000229A600C4B0022DA600B4B00221A61BB
:10236000094B0C225A61084B00229A61064B00224D
:10237000DA61054803F0AEF80346002B01D000F007
:10238000ADF800BF80BD00BF2824002000480040F9
:1023900080B582B000AF0C4B5B690B4A43F0010380
:1023A0005361094B5B6903F001037B607B6800228A
:1023B00000210B2001F0DBFA0B2001F0F4FA00BF42
:1023C0000837BD4680BD00BF0010024080B588B010
:1023D00000AF07F1100300221A605A609A60DA60B9
:1023E0003A4B9B69394A43F010039361374B9B6921
:1023F00003F01003FB60FB68344B9B69334A43F0E6
:1024000020039361314B9B6903F02003BB60BB68E1
:102410002E4B9B692D4A43F0040393612B4B9B6920
:1024200003F004037B607B68284B9B69274A43F0D9
:1024300008039361254B9B6903F008033B603B68ED
:1024400000224FF46041224801F077FE002208216B
:10245000204801F072FE4FF460433B6101237B6131
:102460000023BB610223FB6107F1100319461848E2
:1024700001F0C8FC08233B6101237B610023BB61A1
:102480000223FB6107F110031946124801F0BAFC60
:102490004FF2F8333B6100237B610023BB6107F1FE
:1024A000100319460C4801F0ADFC4FF401433B61A9
:1024B00000237B610023BB6107F110031946054827
:1024C00001F0A0FC00BF2037BD4680BD00100240D7
:1024D0000010014000080140000C014080B400AF32
:1024E00072B600BFFEE7000080B485B000AF154BA8
:1024F0009B69144A43F001039361124B9B6903F0FB
:102500000103BB60BB680F4BDB690E4A43F080538D
:10251000D3610C4BDB6903F080537B607B680A4B13
:102520005B68FB60FB6823F0E063FB60FB6843F0E3
:102530000073FB60044AFB68536000BF1437BD465C
:1025400080BC7047001002400000014080B588B098
:1025500000AF786007F1100300221A605A609A6099
:10256000DA607B681B682C4A934251D12B4B9B69E4
:102570002A4A43F400739361284B9B6903F4007368
:10258000FB60FB68254B9B69244A43F0040393617D
:10259000224B9B6903F00403BB60BB6817233B61BC
:1025A00003237B6107F1100319461D4801F02AFC43
:1025B0001C4B1D4A1A601B4B00225A60194B00220B
:1025C0009A60184B8022DA60164B4FF400721A6141
:1025D000144B4FF400625A61124B20229A61114B46
:1025E0000022DA610F4801F0F9F90346002B01D00F
:1025F000FFF774FF7B680B4A1A620A4A7B685362D2
:1026000000220121122001F0B2F9122001F0CBF9D1
:1026100000BF2037BD4680BD0024014000100240AD
:1026200000080140B42200200800024080B588B0B4
:1026300000AF786007F1100300221A605A609A60B8
:10264000DA607B681B681B4A93422FD11A4B9B6947
:10265000194A43F480539361174B9B6903F48053E9
:10266000FB60FB68144B9B69134A43F004039361BE
:10267000114B9B6903F00403BB60BB68A0233B6163
:1026800002237B610323FB6107F1100319460B480A
:1026900001F0B8FB40233B6100237B610023BB6159
:1026A00007F110031946054801F0ACFB00BF2037C5
:1026B000BD4680BD003001400010024000080140CE
:1026C00080B584B000AF78607B681B68164A93427F
:1026D00014D1164B9B69154A43F400639361134B65
:1026E0009B6903F40063FB60FB6800220021192052
:1026F00001F03DF9192001F056F910E07B681B68E4
:102700000B4A93420BD1094BDB69084A43F00203A1
:10271000D361064BDB6903F00203BB60BB6800BFFB
:102720001037BD4680BD00BF002C014000100240A4
:102730000004004080B58AB000AF786007F118034C
:1027400000221A605A609A60DA607B681B683C4A13
:10275000934232D13B4B9B693A4A43F480439361A5
:10276000384B9B6903F480437B617B69354B9B69E4
:10277000344A43F004039361324B9B6903F0040332
:102780003B613B694FF40073BB610223FB61032390
:102790007B6207F1180319462B4801F033FB4FF415
:1027A0008063BB610023FB6100233B6207F11803D8
:1027B0001946254801F026FB3EE07B681B68234A4A
:1027C000934239D11F4BDB691E4A43F48023D36106
:1027D0001C4BDB6903F48023FB60FB68194B9B698E
:1027E000184A43F008039361164B9B6903F00803F2
:1027F000BB60BB684FF48063BB610223FB610323B2
:102800007B6207F118031946114801F0FBFA4FF4F7
:102810000063BB610023FB6100233B6207F11803E7
:1028200019460B4801F0EEFA00220021272001F0A2
:102830009EF8272001F0B7F800BF2837BD4680BDBD
:1028400000380140001002400008014000480040EC
:10285000000C014080B400AFFEE780B400AFFEE79B
:1028600080B400AFFEE780B400AFFEE780B400AFF5
:10287000FEE780B400AF00BFBD4680BC704780B4A7
:1028800000AF00BFBD4680BC704780B400AF00BF42
:10289000BD4680BC7047000080B500AF0C4B1B8864
:1028A0009BB2002B06D00A4B1B889BB2013B9AB20D
:1028B000074B1A80074B1B68002B04DD054B1B6878
:1028C000013B044A136000F009FA00BF80BD00BF5D
:1028D000142900201400002080B500AF024801F048
:1028E0008BF900BF80BD00BFB422002080B500AFCF
:1028F000024800F0F7FC00BF80BD00BF842200202A
:1029000080B500AF024802F080FA00BF80BD00BF72
:102910005023002080B500AF034800F015F90248AD
:1029200002F0ACFE00BF80BD2824002080B400AFC0
:1029300001231846BD4680BC704780B582B000AF09
:102940007860396006F010FF034616221A604FF0D7
:10295000FF3318460837BD4680BD80B582B000AF52
:1029600078604FF0FF317868FFF7E7FFFEE780B54A
:1029700086B000AFF860B9607A6000237B610AE03E
:10298000AFF300800146BB685A1CBA60CAB21A7025
:102990007B6901337B617A697B689A42F0DB7B68F3
:1029A00018461837BD4680BD80B586B000AFF860C8
:1029B000B9607A6000237B6109E0BB685A1CBA6089
:1029C0001B781846AFF300807B6901337B617A691D
:1029D0007B689A42F1DB7B6818461837BD4680BD9C
:1029E00080B483B000AF78604FF0FF3318460C37E7
:1029F000BD4680BC704780B483B000AF786039605A
:102A00003B684FF400525A60002318460C37BD460D
:102A100080BC704780B483B000AF78600123184653
:102A20000C37BD4680BC704780B485B000AFF860FD
:102A3000B9607A60002318461437BD4680BC7047E1
:102A400080B586B000AF7860144A154BD31A7B610D
:102A50007B693B61134B1B68002B02D1114B124A5F
:102A60001A60104B1A687B6813443A699A4207D27D
:102A700006F07AFE03460C221A604FF0FF3309E09D
:102A8000084B1B68FB60074B1A687B681344054AB8
:102A90001360FB6818461837BD4680BD0050002003
:102AA0000004000010290020782D002080B400AF21
:102AB00000BFBD4680BC704780B400AF0C4B0D4AD0
:102AC0001A600D4B0D4A1A600D4B1B685A690C4B6E
:102AD0001B6842F001025A61094B1B68DA68084B17
:102AE0001B6842F02002DA6000BFBD4680BC704720
:102AF000282D0020182900202C2D0020202B00201C
:102B00002824002080B485B000AF03463960FB71F3
:102B10003B68D3F800320133C3F30803FB603B6822
:102B2000D3F80422FB689A4209D03B68D3F80032FC
:102B30003A68F979D154FA683B68C3F8002200BFBB
:102B40001437BD4680BC704780B586B000AF786052
:102B50007B681B681B687B617B681B68DB683B616B
:102B60007B6903F02003002B13D03B6903F02003A3
:102B7000002B0ED07B681B681B687B681B685B683A
:102B8000FB731E4B1A68FB7B11461846FFF7BAFF12
:102B900031E07B6903F08003002B2CD03B6903F00C
:102BA0008003002B27D0164BD3F80022144BD3F808
:102BB00004329A4208D17B681B68DA687B681B681C
:102BC00022F08002DA6015E00D4BD3F804320C4A93
:102BD000D35CBB730A4BD3F804320133C3F308034D
:102BE000074AC2F804327B681B681B687B681B6855
:102BF000BA7B5A6000BF1837BD4680BD282D002023
:102C0000202B0020FFF752FF0B480C490C4A0023F1
:102C100002E0D458C4500433C4188C42F9D3094A92
:102C2000094C002301E013600432A242FBD306F0FA
:102C3000A1FDFEF701FC7047000000200C020020FF
:102C40002CED00080C020020782D0020FEE700008B
:102C500080B500AF084B1B68074A43F010031360B0
:102C6000032000F079FE0F2000F008F8FFF73CFC8D
:102C70000023184680BD00BF0020024080B582B00E
:102C800000AF7860124B1A68124B1B7819464FF44C
:102C90007A73B3FBF1F3B2FBF3F3184600F091FE45
:102CA0000346002B01D001230EE07B680F2B0AD8CE
:102CB000002279684FF0FF3000F059FE064A7B6829
:102CC0001360002300E0012318460837BD4680BD8D
:102CD00018000020200000201C00002080B400AF5D
:102CE000054B1B781A46054B1B681344034A1360B7
:102CF00000BFBD4680BC704720000020302D002062
:102D000080B400AF024B1B681846BD4680BC7047BC
:102D1000302D002080B584B000AF7860FFF7F0FF61
:102D2000B8607B68FB60FB68B3F1FF3F05D00A4BDE
:102D30001B781A46FB681344FB6000BFFFF7E0FFF7
:102D40000246BB68D31AFA689A42F7D800BF00BFA0
:102D50001037BD4680BD00BF2000002080B586B082
:102D600000AF78600023FB7500233B610023BB604C
:102D70000023FB607B68002B01D10123BEE07B6850
:102D80009B68002B7B689B6A002B09D17B68002223
:102D9000DA627B68002283F824207868FFF7D6FB8C
:102DA000786800F0C3FC0346FB757B689B6A03F000
:102DB0001003002B40F09980FB7D002B40F09580A4
:102DC0007B689B6A23F4885323F0020343F00202DA
:102DD0007B689A627B685A687B68DB691A437B6808
:102DE0001B7B5B001343BA681343BB607B689B6823
:102DF000B3F5807F03D07B689B68012B02D14FF431
:102E0000807300E000233A6913433B617B681B7DBC
:102E1000012B19D17B681B7B002B09D17B689B6937
:102E2000013B5A033B69134343F400633B610BE0EE
:102E30007B689B6A43F020027B689A627B68DB6A4E
:102E400043F001027B68DA627B681B685B6823F4ED
:102E500069417B681B683A690A435A607B681B6852
:102E60009A68284B13407A681268B9680B439360DC
:102E70007B689B68B3F5807F03D07B689B68012BE0
:102E800004D17B681B69013B1B05FB607B681B68E9
:102E9000DB6A23F470017B681B68FA680A43DA6214
:102EA0007B681B689A68184B1340BA689A420BD12A
:102EB0007B680022DA627B689B6A23F0030343F09D
:102EC00001027B689A6218E07B689B6A23F0120318
:102ED00043F010027B689A627B68DB6A43F0010270
:102EE0007B68DA620123FB7507E07B689B6A43F02D
:102EF00010027B689A620123FB75FB7D1846183728
:102F0000BD4680BDFDF7E1FFFE0E1FFF80B584B01A
:102F100000AF78600023FB737B6893F82430012BAB
:102F200001D1022398E07B68012283F8242078688D
:102F300000F0A2FB0346FB73FB7B002B40F0878075
:102F40007B689B6A23F4407323F0010343F480728F
:102F50007B689A627B681B68414A934205D1414B6A
:102F60005B6803F47023002B15D17B689B6A23F404
:102F700080127B689A627B681B685B6803F48063DD
:102F8000002B26D07B689B6A23F4405343F4805285
:102F90007B689A621DE07B689B6A43F480127B68C1
:102FA0009A627B681B682F4A934204D07B681B6837
:102FB0002B4A93420DD12B4B5B6803F48063002BAB
:102FC00007D07B689B6A23F4405343F480527B68AC
:102FD0009A627B689B6A03F48053002B06D07B685F
:102FE000DB6A23F006027B68DA6202E07B6800227B
:102FF000DA627B68002283F824207B681B686FF00C
:1030000002021A607B681B689B6803F46023B3F5B7
:10301000602F13D17B681B68114A934205D1114B75
:103020005B6803F47023002B08D17B681B689A68E7
:103030007B681B6842F4A0029A600CE07B681B6806
:103040009A687B681B6842F480129A6003E07B6890
:10305000002283F82420FB7B18461037BD4680BD34
:10306000002801400024014080B584B000AF7860A2
:103070000023FB737B6893F82430012B01D10223DA
:103080001AE07B68012283F82420786800F04EFB68
:103090000346FB73FB7B002B09D17B689B6A23F4FF
:1030A000885323F0010343F001027B689A627B6836
:1030B000002283F82420FB7B18461037BD4680BDD4
:1030C00090B587B000AF7860396000237B61002342
:1030D000FB6000233B61FFF713FE78617B681B6890
:1030E0009B6803F48073002B0BD07B689B6A43F0D2
:1030F00020027B689A627B68002283F824200123E7
:10310000D3E07B681B685B6803F48073002B31D1CC
:103110007B681B68DB6A03F47003002B2AD121E073
:103120003B68B3F1FF3F1DD03B68002B07D0FFF792
:10313000E7FD02467B69D31A3A689A4212D27B684D
:103140001B681B6803F00203002B0BD17B689B6A92
:1031500043F004027B689A627B68002283F8242093
:103160000323A2E07B681B681B6803F00203002BAB
:10317000D6D070E04F4B1C68022001F0BDFC034626
:10318000B4FBF3F27B681B6819694B4B0B40002BB7
:1031900018D17B681B68D968484B0B40002B11D1B4
:1031A0007B681B681969464B0B40002B08D17B6874
:1031B0001B68D968434B0B40002B01D1142320E03E
:1031C00029231EE07B681B6819693D4B0B40002BCF
:1031D00006D17B681B68D9683A4B0B40002B0DD099
:1031E0007B681B681969384B0B40002B08D17B6842
:1031F0001B68D968344B0B40002B01D1542300E0ED
:10320000FC2302FB03F33B6121E03B68B3F1FF3F8A
:103210001AD03B68002B07D0FFF772FD02467B698E
:10322000D31A3A689A420FD2FB683A699A420BD98C
:103230007B689B6A43F004027B689A627B68002289
:1032400083F82420032330E0FB680133FB60FB6834
:103250003A699A42D9D87B681B686FF012021A60EB
:103260007B689B6A43F400727B689A627B681B6888
:103270009B6803F46023B3F5602F15D17B681B7B3B
:10328000002B11D17B689B6A23F480727B689A6261
:103290007B689B6A03F48053002B05D17B689B6A93
:1032A00043F001027B689A62002318461C37BD4632
:1032B00090BD00BF180000202449922424499200A8
:1032C00092244912922449004992240080B483B088
:1032D00000AF78607B681B68DB6C18460C37BD4616
:1032E00080BC704780B584B000AF78607B681B6895
:1032F0001B68FB607B681B685B68BB60BB6803F096
:103300002003002B3ED0FB6803F00203002B39D0D2
:103310007B689B6A03F01003002B05D17B689B6AD6
:1033200043F400727B689A627B681B689B6803F4B5
:103330006023B3F5602F1DD17B681B7B002B19D157
:103340007B681B685A687B681B6822F020025A6001
:103350007B689B6A23F480727B689A627B689B6AB5
:1033600003F48053002B05D17B689B6A43F0010274
:103370007B689A62786800F074F87B681B686FF06D
:1033800012021A60BB6803F08003002B4DD0FB686B
:1033900003F00403002B48D07B689B6A03F0100302
:1033A000002B05D17B689B6A43F400527B689A62CC
:1033B0007B681B689B6803F4E043B3F5E04F12D0D1
:1033C0007B681B685B6803F48063002B25D17B68F6
:1033D0001B689B6803F46023B3F5602F1DD17B68E5
:1033E0001B7B002B19D17B681B685A687B681B68A4
:1033F00022F080025A607B689B6A23F480527B68CB
:103400009A627B689B6A03F48073002B05D17B680A
:103410009B6A43F001027B689A62786800F0C7F902
:103420007B681B686FF00C021A60BB6803F04003F6
:10343000002B12D0FB6803F00103002B0DD07B683A
:103440009B6A43F480327B689A62786800F012F8D5
:103450007B681B686FF001021A6000BF1037BD4621
:1034600080BD80B483B000AF786000BF0C37BD462C
:1034700080BC704780B483B000AF786000BF0C3769
:10348000BD4680BC7047000080B485B000AF786056
:1034900039600023FB730023BB607B6893F8243002
:1034A000012B01D10223DCE07B68012283F8242078
:1034B0003B685B68062B1CD87B681B68596B3B68B4
:1034C0005A6813469B001344053B1F2202FA03F37C
:1034D000DB4319403B6818683B685A6813469B00F9
:1034E0001344053B00FA03F27B681B680A435A63E6
:1034F0003CE03B685B680C2B1CD87B681B68196B35
:103500003B685A6813469B001344233B1F2202FA70
:1035100003F3DB4319403B6818683B685A6813465D
:103520009B001344233B00FA03F27B681B680A43A9
:103530001A631BE07B681B68D96A3B685A681346AC
:103540009B001344413B1F2202FA03F3DB43194063
:103550003B6818683B685A6813469B001344413B1C
:1035600000FA03F27B681B680A43DA623B681B6857
:10357000092B1CD97B681B68D9683B681A681346FD
:103580005B0013441E3B072202FA03F3DB4319409E
:103590003B6898683B681A6813465B0013441E3BFF
:1035A00000FA03F27B681B680A43DA6019E07B6863
:1035B0001B6819693B681A6813465B0013440722AD
:1035C00002FA03F3DB4319403B6898683B681A68CA
:1035D00013465B00134400FA03F27B681B680A433E
:1035E0001A613B681B68102B03D03B681B68112BCA
:1035F00032D17B681B681D4A934225D17B681B68CA
:103600009B6803F40003002B26D17B681B689A6833
:103610007B681B6842F400029A603B681B68102BB1
:103620001AD1134B1B68134AA2FB03239A0C1346AF
:103630009B0013445B00BB6002E0BB68013BBB60C6
:10364000BB68002BF9D107E07B689B6A43F020023E
:103650007B689A620123FB737B68002283F8242035
:10366000FB7B18461437BD4680BC704700240140E0
:103670001800002083DE1B4380B584B000AF786063
:103680000023FB600023BB607B681B689B6803F022
:103690000103012B40D07B681B689A687B681B681C
:1036A00042F001029A601F4B1B681F4AA2FB0323D2
:1036B0009B0CBB6002E0BB68013BBB60BB68002B9E
:1036C000F9D1FFF71DFBF8601FE0FFF719FB024679
:1036D000FB68D31A022B18D97B681B689B6803F020
:1036E0000103012B11D07B689B6A43F010027B68B9
:1036F0009A627B68DB6A43F001027B68DA627B686E
:10370000002283F82420012307E07B681B689B6864
:1037100003F00103012BD8D1002318461037BD4612
:1037200080BD00BF1800002083DE1B4380B584B03D
:1037300000AF78600023FB607B681B689B6803F028
:103740000103012B2ED17B681B689A687B681B687C
:1037500022F001029A60FFF7D3FAF8601BE0FFF74E
:10376000CFFA0246FB68D31A022B14D97B681B6878
:103770009B6803F00103012B0DD17B689B6A43F02A
:1037800010027B689A627B68DB6A43F001027B6807
:10379000DA62012307E07B681B689B6803F0010382
:1037A000012BDCD0002318461037BD4680BD80B405
:1037B00083B000AF786000BF0C37BD4680BC704757
:1037C00080B485B000AF78607B6803F00703FB60CE
:1037D0000C4BDB68BB60BA684FF6FF031340BB605D
:1037E000FB681A02BB68134343F0BF6343F4003322
:1037F000BB60044ABB68D36000BF1437BD4680BCC1
:10380000704700BF00ED00E080B400AF044BDB6800
:103810001B0A03F007031846BD4680BC704700BF73
:1038200000ED00E080B483B000AF0346FB7197F970
:103830000730002B0BDBFB7903F01F02064997F9D9
:1038400007305B09012000FA02F241F8232000BF93
:103850000C37BD4680BC704700E100E080B483B007
:1038600000AF03463960FB7197F90730002B0ADB84
:103870003B68DAB20C4997F907301201D2B20B4417
:1038800083F800230AE03B68DAB20849FB7903F0C9
:103890000F03043B1201D2B20B441A7600BF0C375F
:1038A000BD4680BC704700BF00E100E000ED00E0D5
:1038B00080B489B000AFF860B9607A60FB6803F04B
:1038C0000703FB61FB69C3F10703042B28BF042333
:1038D000BB61FB690433062B02D9FB69033B00E0A3
:1038E00000237B614FF0FF32BB6902FA03F3DA4336
:1038F000BB681A407B699A404FF0FF317B6901FA3F
:1039000003F3D9437B680B40134318462437BD4665
:1039100080BC704780B582B000AF78607B68013BA7
:10392000B3F1807F01D301230FE00A4A7B68013B9A
:1039300053600F214FF0FF30FFF790FF054B00223F
:103940009A60044B07221A60002318460837BD46C8
:1039500080BD00BF10E000E080B582B000AF7860AD
:103960007868FFF72DFF00BF0837BD4680BD80B5E2
:1039700086B000AF0346B9607A60FB7300237B61B9
:10398000FFF742FF78617A68B9687869FFF790FFBE
:10399000024697F90F3011461846FFF75FFF00BF48
:1039A0001837BD4680BD80B582B000AF0346FB71BD
:1039B00097F907301846FFF735FF00BF0837BD46B7
:1039C00080BD80B582B000AF78607868FFF7A2FF55
:1039D000034618460837BD4680BD000080B485B058
:1039E00000AF78600023FB607B68002B01D10123CE
:1039F00043E07B681B681A46224B1344224AA2FB11
:103A000003231B099A007B681A647B681F4ADA63E8
:103A10007B68022283F821207B681B681B68FB609F
:103A2000FB6823F47F5323F03003FB607B685A6804
:103A30007B689B681A437B68DB681A437B681B6959
:103A40001A437B685B691A437B689B691A437B68EE
:103A5000DB691343FA681343FB607B681B68FA68F1
:103A60001A607B6800229A637B68012283F8212018
:103A70007B68002283F82020002318461437BD46B7
:103A800080BC7047F8FFFDBFCDCCCCCC000002401D
:103A900080B485B000AF78600023FB737B6893F837
:103AA0002130DBB2022B08D07B6804229A637B684A
:103AB000002283F82020012320E07B681B681A681D
:103AC0007B681B6822F00E021A607B681B681A680C
:103AD0007B681B6822F001021A607B681A6C7B68A5
:103AE000DB6B012101FA02F25A607B68012283F844
:103AF00021207B68002283F82020FB7B18461437A6
:103B0000BD4680BC7047000080B584B000AF7860CF
:103B10000023FB737B6893F82130DBB2022B05D0C6
:103B20007B6804229A630123FB7351E07B681B6866
:103B30001A687B681B6822F00E021A607B681B689B
:103B40001A687B681B6822F001021A607B681B6898
:103B5000224A934229D07B681B68214A934222D093
:103B60007B681B681F4A93421AD07B681B681E4AF9
:103B7000934212D07B681B681C4A93420AD07B6830
:103B80001B681B4A934202D14FF480130EE04FF0A2
:103B900080730BE04FF4803308E04FF4805305E06E
:103BA0004FF4807302E0102300E00123114A5360B8
:103BB0007B68012283F821207B68002283F8202083
:103BC0007B685B6B002B03D07B685B6B78689847E6
:103BD000FB7B18461037BD4680BD00BF0800024081
:103BE0001C000240300002404400024058000240E5
:103BF0006C0002400000024080B584B000AF7860E5
:103C00007B68DB6B1B68FB607B681B681B68BB60A9
:103C10007B681B6C04229A40FB681340002B4FD03A
:103C2000BB6803F00403002B4AD07B681B681B6849
:103C300003F02003002B07D17B681B681A687B68A0
:103C40001B6822F004021A607B681B68664A934274
:103C500029D07B681B68654A934222D07B681B6829
:103C6000634A93421AD07B681B68624A934212D01F
:103C70007B681B68604A93420AD07B681B685F4A76
:103C8000934202D14FF480030EE04FF080630BE0CB
:103C90004FF4802308E04FF4804305E04FF4806345
:103CA00002E0402300E00423554A53607B68DB6A4E
:103CB000002B00F094807B68DB6A786898478EE080
:103CC0007B681B6C02229A40FB681340002B56D085
:103CD000BB6803F00203002B51D07B681B681B6894
:103CE00003F02003002B0BD17B681B681A687B68EC
:103CF0001B6822F00A021A607B68012283F82120E7
:103D00007B681B68384A934229D07B681B68374A16
:103D1000934222D07B681B68354A93421AD07B6855
:103D20001B68344A934212D07B681B68324A934224
:103D30000AD07B681B68314A934202D14FF40013CA
:103D40000EE04FF000730BE04FF4003308E04FF447
:103D5000005305E04FF4007302E0202300E002234B
:103D6000274A53607B68002283F820207B689B6A87
:103D7000002B34D07B689B6A786898472FE07B687B
:103D80001B6C08229A40FB681340002B28D0BB68AC
:103D900003F00803002B23D07B681B681A687B683C
:103DA0001B6822F00E021A607B681A6C7B68DB6B62
:103DB000012101FA02F25A607B6801229A637B6852
:103DC000012283F821207B68002283F820207B6871
:103DD0001B6B002B04D07B681B6B7868984700BF77
:103DE00000BF1037BD4680BD080002401C000240E5
:103DF0003000024044000240580002406C00024083
:103E00000000024080B48BB000AF786039600023BE
:103E10007B6200233B6269E101227B6A02FA03F3C1
:103E2000FB613B681B68FA691340BB61BA69FB69B7
:103E30009A4240F058813B685B689A4A93425ED050
:103E4000984A934275D8984A934258D0964A9342DA
:103E50006FD8964A934252D0944A934269D8944A72
:103E600093424CD0924A934263D8924A934246D0AE
:103E7000904A93425DD8122B2AD8122B59D801A20E
:103E800052F823F0FF3E0008D93E0008EB3E000840
:103E90002D3F0008333F0008333F0008333F000840
:103EA000333F0008333F0008333F0008333F00082A
:103EB000333F0008333F0008333F0008333F00081A
:103EC000333F0008333F0008E13E0008F53E00089C
:103ED000794A934213D02CE03B68DB683B6229E0CF
:103EE0003B68DB6804333B6224E03B68DB680833F3
:103EF0003B621FE03B68DB680C333B621AE03B68C7
:103F00009B68002B02D104233B6213E03B689B6853
:103F1000012B05D108233B627B68FA691A6109E02D
:103F200008233B627B68FA695A6103E000233B6225
:103F300000E000BFBB69FF2B01D87B6801E07B6814
:103F400004337B61BB69FF2B02D87B6A9B0002E0D4
:103F50007B6A083B9B003B617B691A680F213B69C8
:103F600001FA03F3DB431A40396A3B6901FA03F3B0
:103F70001A437B691A603B685B6803F08053002B2F
:103F800000F0B1804D4B9B694C4A43F001039361B3
:103F90004A4B9B6903F00103BB60BB68484A7B6ADC
:103FA0009B08023352F82330FB607B6A03F0030363
:103FB0009B000F2202FA03F3DB43FA681340FB6015
:103FC0007B68404A934213D07B683F4A93420DD0AE
:103FD0007B683E4A934207D07B683D4A934201D1B9
:103FE000032306E0042304E0022302E0012300E0AF
:103FF00000237A6A02F0030292009340FA681343A6
:10400000FB602F497B6A9B080233FA6841F8232042
:104010003B685B6803F48013002B06D02D4B9A6835
:104020002C49BB6913438B6006E02A4B9A68BB6935
:10403000DB43284913408B603B685B6803F4001343
:10404000002B06D0234BDA682249BB691343CB60AF
:1040500006E0204BDA68BB69DB431E491340CB60A6
:104060003B685B6803F40033002B06D0194B5A6899
:104070001849BB6913434B6006E0164B5A68BB698D
:10408000DB43144913404B603B685B6803F48033A7
:10409000002B21D00F4B1A680E49BB6913430B60EC
:1040A00021E000BF0000321000003110000022109B
:1040B000000021100000121000001110001002403A
:1040C0000000014000080140000C014000100140C8
:1040D00000140140000401400B4B1A68BB69DB432C
:1040E000094913400B607B6A01337B623B681A68A5
:1040F0007B6A22FA03F3002B7FF48EAE00BF00BF71
:104100002C37BD4680BC70470004014080B485B0A8
:1041100000AF78600B467B807B689A687B88134091
:10412000002B02D00123FB7301E00023FB73FB7B18
:1041300018461437BD4680BC704780B483B000AFCA
:1041400078600B467B8013467B707B78002B03D016
:104150007A887B681A6103E07B881A047B681A619D
:1041600000BF0C37BD4680BC7047000080B586B0EC
:1041700000AF78607B68002B01D1012372E27B687D
:104180001B6803F00103002B00F08780924B5B68F3
:1041900003F00C03042B0CD08F4B5B6803F00C0373
:1041A000082B12D18C4B5B6803F48033B3F5803F4E
:1041B0000BD1894B1B6803F40033002B6CD07B6858
:1041C0005B68002B68D101234CE27B685B68B3F528
:1041D000803F06D1804B1B687F4A43F480331360D5
:1041E0002EE07B685B68002B0CD17B4B1B687A4A06
:1041F00023F480331360784B1B68774A23F48023C1
:1042000013601DE07B685B68B3F5A02F0CD1724B87
:104210001B68714A43F4802313606F4B1B686E4A1E
:1042200043F4803313600BE06B4B1B686A4A23F442
:1042300080331360684B1B68674A23F48023136044
:104240007B685B68002B13D0FEF75AFD386108E0ED
:10425000FEF756FD02463B69D31A642B01D90323AE
:1042600000E25D4B1B6803F40033002BF0D014E038
:10427000FEF746FD386108E0FEF742FD02463B6965
:10428000D31A642B01D90323ECE1534B1B6803F4CD
:104290000033002BF0D100E000BF7B681B6803F007
:1042A0000203002B63D04C4B5B6803F00C03002B24
:1042B0000BD0494B5B6803F00C03082B1CD1464B19
:1042C0005B6803F48033002B16D1434B1B6803F06B
:1042D0000203002B05D07B681B69012B01D0012351
:1042E000C0E13D4B1B6823F0F8027B685B69DB0093
:1042F000394913430B603AE07B681B69002B20D0DF
:10430000364B01221A60FEF7FBFC386108E0FEF72D
:10431000F7FC02463B69D31A022B01D90323A1E122
:104320002D4B1B6803F00203002BF0D02A4B1B68B7
:1043300023F0F8027B685B69DB00274913430B60BD
:1043400015E0264B00221A60FEF7DAFC386108E01F
:10435000FEF7D6FC02463B69D31A022B01D9032390
:1043600080E11D4B1B6803F00203002BF0D17B683A
:104370001B6803F00803002B3AD07B689B69002B75
:1043800019D0174B01221A60FEF7BAFC386108E019
:10439000FEF7B6FC02463B69D31A022B01D9032370
:1043A00060E10D4B5B6A03F00203002BF0D00120AB
:1043B00000F0CEFA1CE00A4B00221A60FEF7A0FCC7
:1043C00038610FE0FEF79CFC02463B69D31A022BD2
:1043D00008D9032346E100BF00100240000042421A
:1043E00080044242924B5B6A03F00203002BE9D146
:1043F0007B681B6803F00403002B00F0A6800023F9
:10440000FB758B4BDB6903F08053002B0DD1884B80
:10441000DB69874A43F08053D361854BDB6903F046
:104420008053BB60BB680123FB75824B1B6803F4A0
:104430008073002B18D17F4B1B687E4A43F4807336
:104440001360FEF75DFC386108E0FEF759FC024698
:104450003B69D31A642B01D9032303E1754B1B6815
:1044600003F48073002BF0D07B68DB68012B06D14E
:104470006F4B1B6A6E4A43F0010313622DE07B68A9
:10448000DB68002B0CD16A4B1B6A694A23F00103DD
:104490001362674B1B6A664A23F0040313621CE035
:1044A0007B68DB68052B0CD1614B1B6A604A43F0CB
:1044B000040313625E4B1B6A5D4A43F001031362FF
:1044C0000BE05B4B1B6A5A4A23F001031362584B03
:1044D0001B6A574A23F0040313627B68DB68002BD6
:1044E00015D0FEF70DFC38610AE0FEF709FC024624
:1044F0003B69D31A41F28832934201D90323B1E0D8
:104500004B4B1B6A03F00203002BEED014E0FEF7C6
:10451000F7FB38610AE0FEF7F3FB02463B69D31A6A
:1045200041F28832934201D903239BE0404B1B6A3E
:1045300003F00203002BEED1FB7D012B05D13C4B98
:10454000DB693B4A23F08053D3617B68DB69002B36
:1045500000F08780364B5B6803F00C03082B61D0BA
:104560007B68DB69022B46D1334B00221A60FEF7D1
:10457000C7FB386108E0FEF7C3FB02463B69D31A6C
:10458000022B01D903236DE0294B1B6803F0007354
:10459000002BF0D17B681B6AB3F5803F08D1244B18
:1045A0005B6823F400327B689B68214913434B60AE
:1045B0001F4B5B6823F474127B68196A7B685B6A23
:1045C0000B431B4913434B601B4B01221A60FEF740
:1045D00097FB386108E0FEF793FB02463B69D31A6C
:1045E000022B01D903233DE0114B1B6803F000733C
:1045F000002BF0D035E0104B00221A60FEF780FB54
:10460000386108E0FEF77CFB02463B69D31A022BB7
:1046100001D9032326E0064B1B6803F00073002B2F
:10462000F0D11EE07B68DB69012B07D1012319E083
:104630000010024000700040600042420B4B5B687B
:10464000FB60FB6803F480327B681B6A9A4206D1E8
:10465000FB6803F470127B685B6A9A4201D0012305
:1046600000E0002318461837BD4680BD0010024008
:1046700080B584B000AF786039607B68002B01D1D1
:104680000123D0E06A4B1B6803F007033A689A42A3
:1046900010D9674B1B6823F0070265493B68134339
:1046A0000B60634B1B6803F007033A689A4201D022
:1046B0000123B8E07B681B6803F00203002B20D0C5
:1046C0007B681B6803F00403002B05D0594B5B6823
:1046D000584A43F4E06353607B681B6803F00803A7
:1046E000002B05D0534B5B68524A43F46053536030
:1046F000504B5B6823F0F0027B689B684D49134385
:104700004B607B681B6803F00103002B40D07B6883
:104710005B68012B07D1474B1B6803F40033002B68
:1047200015D101237FE07B685B68022B07D1414BE9
:104730001B6803F00073002B09D1012373E03D4B8C
:104740001B6803F00203002B01D101236BE0394BFE
:104750005B6823F003027B685B68364913434B6058
:10476000FEF7CEFAF8600AE0FEF7CAFA0246FB68E6
:10477000D31A41F28832934201D9032353E02D4BDF
:104780005B6803F00C027B685B689B009A42EBD18C
:10479000274B1B6803F007033A689A4210D2244B58
:1047A0001B6823F0070222493B6813430B60204B30
:1047B0001B6803F007033A689A4201D0012332E0F4
:1047C0007B681B6803F00403002B08D0194B5B685F
:1047D00023F4E0627B68DB68164913434B607B6817
:1047E0001B6803F00803002B09D0124B5B6823F40D
:1047F00060527B681B69DB000E4913434B6000F07D
:1048000021F802460B4B5B681B0903F00F030A49B2
:10481000CB5C22FA03F3094A1360094B1B68184664
:10482000FEF72CFA002318461037BD4680BD00BFA6
:104830000020024000100240C0E7000818000020DD
:104840001C00002080B487B000AF0023FB60002371
:10485000BB6000237B6100237B6000233B611E4B18
:104860005B68FB60FB6803F00C03042B02D0082B91
:1048700003D027E0194B3B6127E0FB689B0C03F05A
:104880000F03174AD35C7B60FB6803F48033002B73
:1048900010D0114B5B685B0C03F00103114AD35C31
:1048A000BB607B680D4A03FB02F2BB68B2FBF3F30B
:1048B0007B6104E07B680C4A02FB03F37B617B694C
:1048C0003B6102E0054B3B6100BF3B6918461C376A
:1048D000BD4680BC704700BF0010024000127A0045
:1048E000D8E70008E8E7000800093D0080B400AF01
:1048F000024B1B681846BD4680BC7047180000205C
:1049000080B500AFFFF7F2FF0246054B5B681B0A5C
:1049100003F007030349CB5C22FA03F3184680BD7A
:1049200000100240D0E7000880B500AFFFF7DEFFBF
:104930000246054B5B68DB0A03F007030349CB5CC7
:1049400022FA03F3184680BD00100240D0E70008A9
:1049500080B485B000AF78600A4B1B680A4AA2FB9E
:1049600003235B0A7A6802FB03F3FB6000BFFB686A
:104970005A1EFA60002BF9D100BF00BF1437BD46A4
:1049800080BC704718000020D34D621080B586B0FF
:1049900000AF786000233B610023FB607B681B68ED
:1049A00003F00103002B7DD00023FB754F4BDB6927
:1049B00003F08053002B0DD14C4BDB694B4A43F085
:1049C0008053D361494BDB6903F08053BB60BB6804
:1049D0000123FB75464B1B6803F48073002B18D131
:1049E000434B1B68424A43F480731360FEF788F917
:1049F000386108E0FEF784F902463B69D31A642B5C
:104A000001D903236DE03A4B1B6803F48073002B3C
:104A1000F0D0364B1B6A03F44073FB60FB68002B3D
:104A20002ED07B685B6803F44073FA689A4227D003
:104A30002E4B1B6A23F44073FB602E4B01221A603D
:104A40002C4B00221A60294AFB681362FB6803F0B2
:104A50000103002B14D0FEF753F938610AE0FEF78A
:104A60004FF902463B69D31A41F28832934201D989
:104A7000032336E01D4B1B6A03F00203002BEED02C
:104A80001A4B1B6A23F440727B685B681749134317
:104A90000B62FB7D012B05D1144BDB69134A23F01C
:104AA0008053D3617B681B6803F00203002B08D09E
:104AB0000E4B5B6823F440427B689B680B491343B1
:104AC0004B607B681B6803F01003002B08D0074B7A
:104AD0005B6823F480027B68DB68044913434B6006
:104AE000002318461837BD4680BD00BF00100240A5
:104AF000007000404004424280B588B000AF78604A
:104B000000237B610023FB6100233B610023FB60EA
:104B10000023BB617B68102B0AD07B68102B00F24E
:104B20008A807B68012B45D07B68022B75D082E0A0
:104B3000464B5B68FB60454B1B6803F08073002BA2
:104B40007BD0FB689B0C03F00F03414AD35C3B61B5
:104B5000FB6803F48033002B15D03C4B5B685B0C87
:104B600003F001033B4AD35C7B61FB6803F48033B1
:104B7000002B0DD0384A7B69B2FBF3F23B6902FB94
:104B800003F3FB6104E03B69344A02FB03F3FB617E
:104B90002E4B5B6803F48003B3F5800F02D1FB69F1
:104BA000BB614AE0FB695B002D4AA2FB03235B0863
:104BB000BB6142E0254B1B6AFB60FB6803F440735A
:104BC000B3F5807F08D1FB6803F00203002B03D00C
:104BD0004FF40043BB611FE0FB6803F44073B3F57F
:104BE000007F09D1194B5B6A03F00203002B03D04D
:104BF00049F64043BB610FE0FB6803F44073B3F533
:104C0000407F1CD1114B1B6803F40033002B16D0DE
:104C10004FF22443BB6112E011E0FFF785FE02462C
:104C20000A4B5B689B0B03F0030301335B00B2FB91
:104C3000F3F3BB6104E000BF02E000BF00E000BF8F
:104C4000BB6918462037BD4680BD00BF001002403A
:104C5000ECE70008FCE7000800127A0000093D00BC
:104C6000ABAAAAAA80B582B000AF78607B68002B9F
:104C700001D1012376E07B685B6A002B08D17B6859
:104C80005B68B3F5827F09D07B680022DA6105E0BA
:104C90007B6800221A617B6800225A617B680022CF
:104CA0009A627B6893F85130DBB2002B06D17B68A7
:104CB000002283F850207868FDF7B8FC7B68022258
:104CC00083F851207B681B681A687B681B6822F098
:104CD00040021A607B685B6803F482727B689B68A1
:104CE00003F404431A437B68DB6803F400631A434C
:104CF0007B681B6903F002031A437B685B6903F05E
:104D000001031A437B689B6903F400731A437B68B1
:104D1000DB6903F038031A437B681B6A03F08003E6
:104D200042EA03017B689B6A03F400527B681B68BC
:104D30000A431A607B689B691A0C7B681B6802F047
:104D400004025A607B681B68DA697B681B6822F47E
:104D50000062DA617B6800225A657B68012283F871
:104D60005120002318460837BD4680BD80B582B06B
:104D700000AF78607B68002B01D1012341E07B68A4
:104D800093F83D30DBB2002B06D17B68002283F81C
:104D90003C207868FDF794FC7B68022283F83D2074
:104DA0007B681A687B6804331946104600F02AFABB
:104DB0007B68012283F846207B68012283F83E202D
:104DC0007B68012283F83F207B68012283F8402022
:104DD0007B68012283F841207B68012283F842200E
:104DE0007B68012283F843207B68012283F84420FA
:104DF0007B68012283F845207B68012283F83D20EF
:104E0000002318460837BD4680BD80B582B000AF8C
:104E100078607B681B681B6903F00203022B22D1B8
:104E20007B681B68DB6803F00203022B1BD17B68E5
:104E30001B686FF002021A617B6801221A777B6897
:104E40001B689B6903F00303002B03D0786800F014
:104E5000BDF905E0786800F0B0F9786800F0BFF9B6
:104E60007B6800221A777B681B681B6903F00403C8
:104E7000042B22D17B681B68DB6803F00403042B3E
:104E80001BD17B681B686FF004021A617B680222E9
:104E90001A777B681B689B6903F44073002B03D06F
:104EA000786800F093F905E0786800F086F9786892
:104EB00000F095F97B6800221A777B681B681B69F4
:104EC00003F00803082B22D17B681B68DB6803F022
:104ED0000803082B1BD17B681B686FF008021A615E
:104EE0007B6804221A777B681B68DB6903F0030385
:104EF000002B03D0786800F069F905E0786800F0CD
:104F00005CF9786800F06BF97B6800221A777B689F
:104F10001B681B6903F01003102B22D17B681B68F0
:104F2000DB6803F01003102B1BD17B681B686FF04C
:104F300010021A617B6808221A777B681B68DB699C
:104F400003F44073002B03D0786800F03FF905E0CC
:104F5000786800F032F9786800F041F97B68002247
:104F60001A777B681B681B6903F00103012B0ED1C4
:104F70007B681B68DB6803F00103012B07D17B68AA
:104F80001B686FF001021A61786800F00DF97B6808
:104F90001B681B6903F08003802B0ED17B681B68A4
:104FA000DB6803F08003802B07D17B681B686FF000
:104FB00080021A61786800F084FA7B681B681B69BC
:104FC00003F04003402B0ED17B681B68DB6803F0C5
:104FD0004003402B07D17B681B686FF040021A61C9
:104FE000786800F005F97B681B681B6903F02003F3
:104FF000202B0ED17B681B68DB6803F02003202B7D
:1050000007D17B681B686FF020021A61786800F096
:105010004FFA00BF0837BD4680BD80B584B000AFF1
:10502000786039600023FB737B6893F83C30012B78
:1050300001D10223B4E07B68012283F83C207B6825
:10504000022283F83D207B681B689B68BB60BB68BD
:1050500023F07703BB60BB6823F47F43BB607B68AE
:105060001B68BA689A603B681B68B3F5005F3ED066
:10507000B3F5005F00F28780B3F5805F00F08680B3
:10508000B3F5805F7FD8702B1AD0702B7BD8602B44
:1050900050D0602B77D8502B3CD0502B73D8402B5E
:1050A00058D0402B6FD8302B64D0302B6BD8202BAE
:1050B00060D0202B67D8002B5CD0102B5AD062E038
:1050C0007B6818683B6899683B685A683B68DB688E
:1050D00000F071F97B681B689B68BB60BB6843F09C
:1050E0007703BB607B681B68BA689A604FE07B6897
:1050F00018683B6899683B685A683B68DB6800F051
:105100005AF97B681B689A687B681B6842F4804286
:105110009A603CE07B6818683B6859683B68DB68CC
:105120001A4600F0D1F87B681B685021184600F041
:1051300028F92CE07B6818683B6859683B68DB6895
:105140001A4600F0EFF87B681B686021184600F0F3
:1051500018F91CE07B6818683B6859683B68DB6895
:105160001A4600F0B1F87B681B684021184600F031
:1051700008F90CE07B681A683B681B681946104602
:1051800000F0FFF803E00123FB7300E000BF7B6841
:10519000012283F83D207B68002283F83C20FB7BC2
:1051A00018461037BD4680BD80B483B000AF78602C
:1051B00000BF0C37BD4680BC704780B483B000AFE1
:1051C000786000BF0C37BD4680BC704780B483B0A8
:1051D00000AF786000BF0C37BD4680BC704780B41C
:1051E00083B000AF786000BF0C37BD4680BC70470D
:1051F00080B483B000AF786000BF0C37BD4680BC80
:105200007047000080B485B000AF786039607B687B
:105210001B68FB607B68294A93420BD07B68B3F123
:10522000804F07D07B68264A934203D07B68254A8B
:10523000934208D1FB6823F07003FB603B685B6816
:10524000FA681343FB607B681C4A93420BD07B686F
:10525000B3F1804F07D07B68194A934203D07B6833
:10526000184A934208D1FB6823F44073FB603B6803
:10527000DB68FA681343FB60FB6823F080023B683D
:105280005B691343FB607B68FA681A603B689A6845
:105290007B68DA623B681A687B689A627B68074AB7
:1052A000934203D13B681A697B681A637B680122C9
:1052B0005A6100BF1437BD4680BC7047002C0140C6
:1052C000000400400008004080B487B000AFF860E0
:1052D000B9607A60FB681B6A7B61FB681B6A23F01C
:1052E0000102FB681A62FB689B693B613B6923F022
:1052F000F0033B617B681B013A6913433B617B69A7
:1053000023F00A037B617A69BB6813437B61FB6806
:105310003A699A61FB687A691A6200BF1C37BD4618
:1053200080BC704780B487B000AFF860B9607A6025
:10533000FB681B6A7B61FB681B6A23F01002FB6839
:105340001A62FB689B693B613B6923F470433B61D4
:105350007B681B033A6913433B617B6923F0A0031D
:105360007B61BB681B017A6913437B61FB683A6907
:105370009A61FB687A691A6200BF1C37BD4680BC1F
:10538000704780B485B000AF786039607B689B68F7
:10539000FB60FB6823F07003FB603A68FB68134313
:1053A00043F00703FB607B68FA689A6000BF14371C
:1053B000BD4680BC704780B487B000AFF860B9606C
:1053C0007A603B60FB689B687B617B6923F47F4369
:1053D0007B613B681A027B681A43BB6813437A6996
:1053E00013437B61FB687A699A6000BF1C37BD4636
:1053F00080BC704780B485B000AF786039607B684E
:1054000093F83C30012B01D1022346E07B68012256
:1054100083F83C207B68022283F83D207B681B6870
:105420005B68FB607B681B689B68BB60FB6823F064
:105430007003FB603B681B68FA681343FB607B6882
:105440001B68FA685A607B681B68164A93420ED044
:105450007B681B68B3F1804F09D07B681B68124AD8
:10546000934204D07B681B68104A93420CD1BB68FE
:1054700023F08003BB603B685B68BA681343BB6082
:105480007B681B68BA689A607B68012283F83D20BC
:105490007B68002283F83C20002318461437BD4661
:1054A00080BC7047002C0140000400400008004010
:1054B00080B483B000AF786000BF0C37BD4680BCBD
:1054C000704780B483B000AF786000BF0C37BD4632
:1054D00080BC704780B582B000AF78607B68002BDD
:1054E00001D1012342E07B6893F84130DBB2002B0D
:1054F00006D17B68002283F840207868FDF71AF90E
:105500007B68242283F841207B681B68DA687B680B
:105510001B6822F40052DA60786800F071FD7B6845
:105520001B681A697B681B6822F490421A617B68C9
:105530001B685A697B681B6822F02A025A617B68E3
:105540001B68DA687B681B6842F40052DA607B688B
:1055500000225A647B68202283F841207B68202245
:1055600083F842207B6800225A63002318460837DC
:10557000BD4680BD80B58AB002AFF860B9603B60BF
:105580001346FB8000237B61FB6893F84130DBB25C
:10559000202B6DD1BB68002B02D0FB88002B01D1E2
:1055A000012366E0FB6800225A64FB68212283F82D
:1055B0004120FDF7A5FB7861FB68FA889A84FB68B7
:1055C000FA88DA84FB689B68B3F5805F08D1FB68D2
:1055D0001B69002B04D10023FB61BB68BB6103E0A6
:1055E000BB68FB610023BB612AE03B6800937B69D9
:1055F00000228021F86800F0F9FA0346002B01D060
:10560000032336E0FB69002B0BD1BB691B881A46CC
:10561000FB681B68C2F308025A60BB690233BB61B6
:1056200007E0FB691A78FB681B685A60FB69013365
:10563000FB61FB68DB8C9BB2013B9AB2FB68DA84AE
:10564000FB68DB8C9BB2002BCFD13B6800937B695E
:1056500000224021F86800F0C9FA0346002B01D06F
:10566000032306E0FB68202283F84120002300E0AA
:10567000022318462037BD4680BD000080B5BAB071
:1056800000AF78607B681B681B68C7F8E4307B68F4
:105690001B68DB68C7F8E0307B681B685B69C7F88C
:1056A000DC300023C7F8D8300023C7F8D430D7F84F
:1056B000E43003F00F03C7F8D830D7F8D830002B08
:1056C0000FD1D7F8E43003F02003002B09D0D7F82E
:1056D000E03003F02003002B03D0786800F0D1FB0A
:1056E0005BE2D7F8D830002B00F0DE80D7F8DC3052
:1056F00003F00103002B06D1D7F8E03003F49073D8
:10570000002B00F0D180D7F8E43003F00103002B28
:105710000BD0D7F8E03003F48073002B05D07B6802
:105720005B6C43F001027B685A64D7F8E43003F005
:105730000403002B0BD0D7F8DC3003F00103002B5F
:1057400005D07B685B6C43F002027B685A64D7F833
:10575000E43003F00203002B0BD0D7F8DC3003F069
:105760000103002B05D07B685B6C43F004027B686F
:105770005A64D7F8E43003F00803002B11D0D7F8AF
:10578000E03003F02003002B05D1D7F8DC3003F024
:105790000103002B05D07B685B6C43F008027B683B
:1057A0005A647B685B6C002B00F0F281D7F8E43020
:1057B00003F02003002B08D0D7F8E03003F02003DB
:1057C000002B02D0786800F05CFB7B681B685B698B
:1057D00003F04003002B14BF01230023DBB2C7F802
:1057E000D4307B685B6C03F00803002B03D1D7F83F
:1057F000D430002B4FD0786800F066FA7B681B68C5
:105800005B6903F04003002B41D07B681B681433B5
:10581000C7F89C30D7F89C3053E8003FC7F8983061
:10582000D7F8983023F04003C7F8D0307B681B6866
:105830001433D7F8D020C7F8A820C7F8A430D7F879
:10584000A410D7F8A82041E80023C7F8A030D7F863
:10585000A030002BD9D17B68DB6B002B13D07B6889
:10586000DB6B7E4A5A637B68DB6B1846FEF74CF9AC
:105870000346002B16D07B68DB6B5B6B7A68D26BC0
:10588000104698470EE0786800F09CF90AE07868C6
:1058900000F098F906E0786800F094F97B6800223F
:1058A0005A6475E100BF73E17B681B6B012B40F00C
:1058B0004F81D7F8E43003F01003002B00F048814B
:1058C000D7F8E03003F01003002B00F041810023F3
:1058D000BB607B681B681B68BB607B681B685B6880
:1058E000BB60BB687B681B685B6903F04003002BEF
:1058F00000F0B6807B68DB6B1B685B68A7F8BE3086
:10590000B7F8BE30002B00F045817B689B8DB7F85F
:10591000BE209A4280F03E817B68B7F8BE20DA85CF
:105920007B68DB6B9B69202B00F088807B681B68A1
:105930000C33C7F88830D7F8883053E8003FC7F8F1
:105940008430D7F8843023F48073C7F8B8307B688C
:105950001B680C33D7F8B820C7F89420C7F89030EC
:10596000D7F89010D7F8942041E80023C7F88C307E
:10597000D7F88C30002BD9D17B681B6814337B6738
:105980007B6F53E8003F3B673B6F23F00103C7F891
:10599000B4307B681B681433D7F8B420C7F8802074
:1059A000FB67F96FD7F8802041E80023BB67BB6F26
:1059B000002BE1D17B681B6814333B663B6E53E8D8
:1059C000003FFB65FB6D23F04003C7F8B0307B68F8
:1059D0001B681433D7F8B020FA66BB66B96EFA6E4E
:1059E00041E800237B667B6E002BE3D17B6820229D
:1059F00083F842207B6800221A637B681B680C33A3
:105A0000FB64FB6C53E8003FBB64BB6C23F01003EA
:105A1000C7F8AC307B681B680C33D7F8AC20BA658C
:105A20007B65796DBA6D41E800233B653B6D002BCA
:105A3000E3D17B68DB6B1846FEF72AF87B6802220D
:105A40005A637B689A8D7B68DB8D9BB2D31A9BB2BD
:105A50001946786800F0BFF89CE000BF8D5D000833
:105A60007B689A8D7B68DB8D9BB2D31AA7F8CE300A
:105A70007B68DB8D9BB2002B00F08E80B7F8CE30B8
:105A8000002B00F089807B681B680C33BB63BB6B09
:105A900053E8003F7B637B6B23F49073C7F8C830F7
:105AA0007B681B680C33D7F8C8207A643B64396C78
:105AB0007A6C41E80023FB63FB6B002BE3D17B682E
:105AC0001B6814337B627B6A53E8003F3B623B6A8E
:105AD00023F00103C7F8C4307B681B681433D7F880
