:020000040800F2
:10000000005000201128000821260008272600089B
:100010002D260008332600083926000800000000BD
:100020000000000000000000000000003F26000863
:100030004B26000800000000572600086326000831
:10004000592800085928000859280008592800088C
:10005000592800085928000859280008592800087C
:10006000592800085928000859280008592800086C
:10007000592800085928000859280008592800085C
:100080005928000859280008712600085928000836
:10009000592800085928000859280008592800083C
:1000A000592800085928000859280008592800082C
:1000B000592800085928000859280008592800081C
:1000C000592800085928000859280008592800080C
:1000D00059280008592800085928000859280008FC
:1000E0005928000859280008592800080000000075
:1000F0000000000000000000000000000000000000
:0C01000000000000000000005FF808F1A3
:1001100010B5054C237833B9044B13B10448AFF341
:1001200000800123237010BD0802002000000000A1
:10013000C4CB000808B5034B1BB103490348AFF318
:10014000008008BD000000000C020020C4CB0008A5
:10015000034613F8012B002AFBD1181A0138704707
:1001600081F0004102E000BF83F0004330B54FEA68
:1001700041044FEA430594EA050F08BF90EA020FD5
:100180001FBF54EA000C55EA020C7FEA645C7FEA68
:10019000655C00F0E2804FEA5454D4EB5555B8BF8B
:1001A0006D420CDD2C4480EA020281EA030382EAFC
:1001B000000083EA010180EA020281EA0303362D8E
:1001C00088BF30BD11F0004F4FEA01314FF4801C61
:1001D0004CEA113102D0404261EB410113F0004F73
:1001E0004FEA03334CEA133302D0524263EB43032A
:1001F00094EA050F00F0A780A4F10104D5F1200EC8
:100200000DDB02FA0EFC22FA05F2801841F1000122
:1002100003FA0EF2801843FA05F359410EE0A5F1F6
:1002200020050EF1200E012A03FA0EFC28BF4CF027
:10023000020C43FA05F3C01851EBE37101F00045DD
:1002400007D54FF0000EDCF1000C7EEB00006EEBEA
:100250000101B1F5801F1BD3B1F5001F0CD3490874
:100260005FEA30004FEA3C0C04F101044FEA4452CB
:1002700012F5800F80F09A80BCF1004F08BF5FEA52
:10028000500C50F1000041EB045141EA050130BD32
:100290005FEA4C0C404141EB0101013C28BFB1F544
:1002A000801FE9D291F0000F04BF01460020B1FA8F
:1002B00081F308BF2033A3F10B03B3F120020CDA62
:1002C0000C3208DD02F1140CC2F10C0201FA0CF040
:1002D00021FA02F10CE002F11402D8BFC2F1200CA5
:1002E00001FA02F120FA0CFCDCBF41EA0C0190405B
:1002F000E41AA2BF01EB0451294330BD6FEA0404A4
:100300001F3C1CDA0C340EDC04F11404C4F120028E
:1003100020FA04F001FA02F340EA030021FA04F3A0
:1003200045EA030130BDC4F10C04C4F1200220FAF7
:1003300002F001FA04F340EA0300294630BD21FA35
:1003400004F0294630BD94F0000F83F4801306BFFB
:1003500081F480110134013D4EE77FEA645C18BFEF
:100360007FEA655C29D094EA050F08BF90EA020F86
:1003700005D054EA000C04BF1946104630BD91EA7E
:10038000030F1EBF0021002030BD5FEA545C05D181
:100390004000494128BF41F0004130BD14F58004C0
:1003A0003CBF01F5801130BD01F0004545F0FE4134
:1003B00041F470014FF0000030BD7FEA645C1ABF69
:1003C000194610467FEA655C1CBF0B46024650EAA0
:1003D000013406BF52EA033591EA030F41F40021CC
:1003E00030BD00BF90F0000F04BF0021704730B552
:1003F0004FF4806404F132044FF000054FF0000127
:1004000050E700BF90F0000F04BF0021704730B5E7
:100410004FF4806404F1320410F0004548BF4042BC
:100420004FF000013EE700BF42004FEAE2014FEA11
:1004300031014FEA02701FBF12F07F4393F07F4FEC
:1004400081F06051704732F07F4208BF704793F0EF
:100450007F4F04BF41F40021704730B54FF4607402
:1004600001F0004521F000411CE700BF50EA010205
:1004700008BF704730B54FF000050AE050EA0102AE
:1004800008BF704730B511F0004502D5404261EB1E
:1004900041014FF4806404F132045FEA915C3FF45F
:1004A000D8AE4FF003025FEADC0C18BF03325FEAFC
:1004B000DC0C18BF033202EBDC02C2F1200300FAAD
:1004C00003FC20FA02F001FA03FE40EA0E0021FAD2
:1004D00002F11444BDE600BF70B54FF0FF0C4CF4C0
:1004E000E06C1CEA11541DBF1CEA135594EA0C0F72
:1004F00095EA0C0F00F0DEF82C4481EA030621EAAD
:100500004C5123EA4C5350EA013518BF52EA0335E7
:1005100041F4801143F4801338D0A0FB02CE4FF099
:100520000005E1FB02E506F00042E0FB03E54FF0C9
:100530000006E1FB03569CF0000F18BF4EF0010EC1
:10054000A4F1FF04B6F5007F64F5407404D25FEABD
:100550004E0E6D4146EB060642EAC62141EA555170
:100560004FEAC52040EA5E504FEACE2EB4F1FD0CB2
:1005700088BFBCF5E06F1ED8BEF1004F08BF5FEA30
:10058000500E50F1000041EB045170BD06F00046E2
:1005900046EA010140EA020081EA0301B4EB5C048F
:1005A000C2BFD4EB0C0541EA045170BD41F4801187
:1005B0004FF0000E013C00F3AB8014F1360FDEBFAC
:1005C000002001F0004170BDC4F10004203C35DA88
:1005D0000C341BDC04F11404C4F1200500FA05F30B
:1005E00020FA04F001FA05F240EA020001F00042AC
:1005F00021F0004110EBD37021FA04F642EB060122
:100600005EEA430E08BF20EAD37070BDC4F10C044B
:10061000C4F1200500FA04F320FA05F001FA04F20F
:1006200040EA020001F0004110EBD37041F10001FB
:100630005EEA430E08BF20EAD37070BDC4F1200506
:1006400000FA05F24EEA020E20FA04F301FA05F26E
:1006500043EA020321FA04F001F0004121FA04F216
:1006600020EA020000EBD3705EEA430E08BF20EAE6
:10067000D37070BD94F0000F0FD101F00046400020
:1006800041EB010111F4801F08BF013CF7D041EAA2
:10069000060195F0000F18BF704703F000465200A6
:1006A00043EB030313F4801F08BF013DF7D043EA77
:1006B0000603704794EA0C0F0CEA135518BF95EA2D
:1006C0000C0F0CD050EA410618BF52EA4306D1D1B4
:1006D00081EA030101F000414FF0000070BD50EAD3
:1006E000410606BF1046194652EA430619D094EA5D
:1006F0000C0F02D150EA013613D195EA0C0F05D147
:1007000052EA03361CBF104619460AD181EA03019A
:1007100001F0004141F0FE4141F470014FF0000052
:1007200070BD41F0FE4141F4780170BD70B54FF0ED
:10073000FF0C4CF4E06C1CEA11541DBF1CEA13556D
:1007400094EA0C0F95EA0C0F00F0A7F8A4EB05044F
:1007500081EA030E52EA03354FEA013100F0888046
:100760004FEA03334FF0805545EA131343EA12630F
:100770004FEA022245EA111545EA10654FEA0026C4
:100780000EF000419D4208BF964244F1FD0404F57D
:10079000407402D25B084FEA3202B61A65EB0305D9
:1007A0005B084FEA32024FF480104FF4002CB6EB96
:1007B000020E75EB030E22BFB61A754640EA0C0016
:1007C0005B084FEA3202B6EB020E75EB030E22BF56
:1007D000B61A754640EA5C005B084FEA3202B6EB97
:1007E000020E75EB030E22BFB61A754640EA9C0056
:1007F0005B084FEA3202B6EB020E75EB030E22BF26
:10080000B61A754640EADC0055EA060E18D04FEAE3
:10081000051545EA16754FEA06164FEAC30343EA83
:1008200052734FEAC2025FEA1C1CC0D111F4801F50
:100830000BD141EA00014FF000004FF0004CB6E749
:1008400011F4801F04BF01430020B4F1FD0C88BFE8
:10085000BCF5E06F3FF6AFAEB5EB030C04BFB6EBF3
:10086000020C5FEA500C50F1000041EB045170BDE6
:100870000EF0004E4EEA113114EB5C04C2BFD4EB13
:100880000C0541EA045170BD41F480114FF0000E97
:10089000013C90E645EA060E8DE60CEA135594EA13
:1008A0000C0F08BF95EA0C0F3FF43BAF94EA0C0F16
:1008B0000AD150EA01347FF434AF95EA0C0F7FF48B
:1008C00025AF104619462CE795EA0C0F06D152EADF
:1008D00003353FF4FDAE1046194622E750EA4106C3
:1008E00018BF52EA43067FF4C5AE50EA41047FF4D4
:1008F0000DAF52EA43057FF4EBAE12E74FF0FF3C39
:1009000006E000BF4FF0010C02E000BF4FF0010C09
:100910004DF804CD4FEA410C7FEA6C5C4FEA430C82
:1009200018BF7FEA6C5C1BD001B050EA410C0CBFD1
:1009300052EA430C91EA030F02BF90EA020F002033
:10094000704710F1000F91EA030F58BF994208BF9A
:1009500090422CBFD8176FEAE37040F00100704757
:100960004FEA410C7FEA6C5C02D150EA013C07D1AE
:100970004FEA430C7FEA6C5CD6D152EA033CD3D0F9
:100980005DF8040B704700BF8446104662468C46F3
:100990001946634600E000BF01B5FFF7B7FF002826
:1009A00048BF10F1000F01BD4DF808EDFFF7F4FF4F
:1009B0000CBF012000205DF808FB00BF4DF808EDDA
:1009C000FFF7EAFF34BF012000205DF808FB00BFFD
:1009D0004DF808EDFFF7E0FF94BF012000205DF81F
:1009E00008FB00BF4DF808EDFFF7CEFF94BF0120D4
:1009F00000205DF808FB00BF4DF808EDFFF7C4FFCD
:100A000034BF012000205DF808FB00BF4FEA410C15
:100A10007FEA6C5C02D150EA013C0AD14FEA430CF8
:100A20007FEA6C5C02D152EA033C02D14FF0000035
:100A300070474FF0010070474FEA410212F5001273
:100A400015D211D56FF47873B3EB625212D94FEA15
:100A5000C12343F0004343EA505311F0004F23FAFF
:100A600002F018BF404270474FF00000704750EA54
:100A7000013005D111F0004008BF6FF00040704711
:100A80004FF00000704700BF4A0011D212F500126B
:100A900011D20DD56FF47873B3EB62520ED44FEAD6
:100AA000C12343F0004343EA505323FA02F0704756
:100AB0004FF00000704750EA013002D14FF0FF3094
:100AC00070474FF0000070474FEA4102B2F1E04337
:100AD00024BFB3F5001CDCF1FE5C0DD901F0004C25
:100AE0004FEAC0024CEA5070B2F1004F40EB830075
:100AF00008BF20F00100704711F0804F21D113F1A1
:100B00003872BCBF01F00040704741F480114FEAD9
:100B10005252C2F11802C2F1200C10FA0CF320FA62
:100B200002F018BF40F001004FEAC1234FEAD3237F
:100B300003FA0CFC40EA0C0023FA02F34FEA4303E9
:100B4000CCE77FEA625307D150EA01331EBF4FF072
:100B5000FE4040F44000704701F0004040F0FE408D
:100B600040F40000704700BF80F0004002E000BF8A
:100B700081F0004142001FBF5FEA410392EA030F88
:100B80007FEA226C7FEA236C6AD04FEA1262D2EBD2
:100B90001363C1BFD218414048404140B8BF5B42D7
:100BA000192B88BF704710F0004F40F4000020F070
:100BB0007F4018BF404211F0004F41F4000121F086
:100BC0007F4118BF494292EA030F3FD0A2F10102D0
:100BD00041FA03FC10EB0C00C3F1200301FA03F10E
:100BE00000F0004302D5494260EB4000B0F5000F31
:100BF00013D3B0F1807F06D340084FEA310102F1F0
:100C00000102FE2A51D2B1F1004F40EBC25008BFA1
:100C100020F0010040EA03007047490040EB00006B
:100C2000013A28BFB0F5000FEDD2B0FA80FCACF16C
:100C3000080CB2EB0C0200FA0CF0AABF00EBC25099
:100C400052421843BCBFD0401843704792F0000F87
:100C500081F4000106BF80F400000132013BB5E7DA
:100C60004FEA41037FEA226C18BF7FEA236C21D050
:100C700092EA030F04D092F0000F08BF08467047B5
:100C800090EA010F1CBF0020704712F07F4F04D183
:100C9000400028BF40F00040704712F100723CBF96
:100CA00000F50000704700F0004343F0FE4040F4C0
:100CB000000070477FEA226216BF08467FEA23637E
:100CC0000146420206BF5FEA412390EA010F40F469
:100CD000800070474FF0000304E000BF10F00043B5
:100CE00048BF40425FEA000C08BF704743F096439C
:100CF00001464FF000001CE050EA010208BF7047B7
:100D00004FF000030AE000BF50EA010208BF70473D
:100D100011F0004302D5404261EB41015FEA010C52
:100D200002BF84460146002043F0B64308BFA3F14A
:100D30008053A3F50003BCFA8CF2083AA3EBC2532C
:100D400010DB01FA02FC634400FA02FCC2F120024B
:100D5000BCF1004F20FA02F243EB020008BF20F082
:100D60000100704702F1200201FA02FCC2F12002E8
:100D700050EA4C0021FA02F243EB020008BF20EADD
:100D8000DC7070474FF0FF0C1CEAD0521EBF1CEA0B
:100D9000D15392EA0C0F93EA0C0F6FD01A4480EAF9
:100DA000010C400218BF5FEA41211ED04FF00063E2
:100DB00043EA501043EA5111A0FB01310CF000400E
:100DC000B1F5000F3EBF490041EAD3715B0040EA34
:100DD000010062F17F02FD2A1DD8B3F1004F40EB04
:100DE000C25008BF20F00100704790F0000F0CF0D7
:100DF000004C08BF49024CEA502040EA51207F3A9B
:100E0000C2BFD2F1FF0340EAC250704740F4000075
:100E10004FF00003013A5DDC12F1190FDCBF00F066
:100E200000407047C2F10002410021FA02F1C2F114
:100E3000200200FA02FC5FEA310040F1000053EAB0
:100E40004C0308BF20EADC70704792F0000F00F0FE
:100E5000004C02BF400010F4000F013AF9D040EA04
:100E60000C0093F0000F01F0004C02BF490011F498
:100E7000000F013BF9D041EA0C018FE70CEAD15396
:100E800092EA0C0F18BF93EA0C0F0AD030F0004C16
:100E900018BF31F0004CD8D180EA010000F00040CA
:100EA000704790F0000F17BF90F0004F084691F088
:100EB000000F91F0004F14D092EA0C0F01D14202C2
:100EC0000FD193EA0C0F03D14B0218BF084608D18B
:100ED00080EA010000F0004040F0FE4040F40000D5
:100EE000704740F0FE4040F4400070474FF0FF0C68
:100EF0001CEAD0521EBF1CEAD15392EA0C0F93EAAF
:100F00000C0F69D0A2EB030280EA010C49024FEA00
:100F1000402037D04FF0805343EA111143EA1013B9
:100F20000CF000408B4238BF5B0042F17D024FF471
:100F3000000C8B4224BF5B1A40EA0C00B3EB510F4C
:100F400024BFA3EB510340EA5C00B3EB910F24BF35
:100F5000A3EB910340EA9C00B3EBD10F24BFA3EBBA
:100F6000D10340EADC001B0118BF5FEA1C1CE0D182
:100F7000FD2A3FF650AF8B4240EBC25008BF20F035
:100F8000010070470CF0004C4CEA50207F32C2BF89
:100F9000D2F1FF0340EAC250704740F400004FF026
:100FA0000003013A37E792F0000F00F0004C02BF57
:100FB000400010F4000F013AF9D040EA0C0093F021
:100FC000000F01F0004C02BF490011F4000F013B7B
:100FD000F9D041EA0C0195E70CEAD15392EA0C0FE3
:100FE00008D142027FF47DAF93EA0C0F7FF470AF1B
:100FF000084676E793EA0C0F04D14B023FF44CAF5E
:1010000008466EE730F0004C18BF31F0004CCAD1F2
:1010100030F000427FF45CAF31F000437FF43CAF2E
:101020005FE700BF4FF0FF3C06E000BF4FF0010C50
:1010300002E000BF4FF0010C4DF804CD4FEA400232
:101040004FEA41037FEA226C18BF7FEA236C11D07C
:1010500001B052EA530C18BF90EA010F58BFB2EB2F
:10106000030088BFC81738BF6FEAE17018BF40F0AF
:10107000010070477FEA226C02D15FEA402C05D163
:101080007FEA236CE4D15FEA412CE1D05DF8040BE8
:10109000704700BF844608466146FFE70FB5FFF77B
:1010A000C9FF002848BF10F1000F0FBD4DF808ED33
:1010B000FFF7F4FF0CBF012000205DF808FB00BF24
:1010C0004DF808EDFFF7EAFF34BF012000205DF87E
:1010D00008FB00BF4DF808EDFFF7E0FF94BF0120CB
:1010E00000205DF808FB00BF4DF808EDFFF7D2FFC8
:1010F00094BF012000205DF808FB00BF4DF808ED0B
:10110000FFF7C8FF34BF012000205DF808FB00BFD7
:101110004FEA4002B2F1FE4F0FD34FF09E03B3EB04
:1011200012620DD94FEA002343F0004310F0004F44
:1011300023FA02F018BF404270474FF0000070479A
:1011400012F1610F01D1420205D110F0004008BF39
:101150006FF0004070474FF00000704742000ED221
:10116000B2F1FE4F0BD34FF09E03B3EB126209D4E2
:101170004FEA002343F0004323FA02F070474FF098
:101180000000704712F1610F01D1420202D14FF00D
:10119000FF3070474FF00000704700BF38B505467C
:1011A0000C460022002328462146FFF707FC28B9F9
:1011B00028462146BDE8384000F00AB8284604F128
:1011C000004100F005F8404261EB410138BD00BF2D
:1011D000D0B500220B4B06460F46FFF77DF9FFF70F
:1011E00053FC0446FFF7FEF80022074BFFF774F9A3
:1011F00002460B4630463946FEF7B6FFFFF744FC81
:101200002146D0BD0000F03D0000F04180B584B023
:1012100000AF3B1D00221A605A609A6000237B6079
:101220000123BB600123FB603B1D1946054801F00B
:1012300035FF0346002B01D001F0E0F800BF103766
:10124000BD4680BD8022002080B584B000AF3B1D2C
:1012500000221A605A609A6001237B600123BB6000
:101260000123FB603B1D1946054801F017FF0346AB
:10127000002B01D001F0C2F800BF1037BD4680BD81
:101280008022002080B584B000AF3B1D00221A6090
:101290005A609A6002237B600123BB600123FB60DC
:1012A0003B1D1946054801F0F9FE0346002B01D00D
:1012B00001F0A4F800BF1037BD4680BD8022002099
:1012C00080B584B000AF3B1D00221A605A609A605E
:1012D00004237B600123BB600123FB603B1D194697
:1012E000054801F0DBFE0346002B01D001F086F833
:1012F00000BF1037BD4680BD8022002090B484B06E
:1013000000AF0346FB800023FB603CE0224AFB6801
:1013100032F81330FA889A4232D3FB680A2B07D08E
:10132000FB6801331C4A32F81330FA889A4227D8F6
:101330001A4AFB6813441A78FB881748F96830F892
:1013400011105B1AF96801311448415C0C461348CE
:10135000F96801440978611A03FB01F1FB68013364
:101360000D4830F813301C460B48FB6830F813303A
:10137000E31A91FBF3F3DBB21344FB72FB7A06E052
:10138000FB680133FB60FB680A2BBFDD00231846B6
:101390001037BD4690BC704774CF00088CCF000852
:1013A00090B484B000AF03460A46FB801346BB806E
:1013B0000023FB604BE02A4AFB6832F81330FA88BE
:1013C0009A4241D3274AFB6832F81330BA889A42CE
:1013D0003AD3FB680A2B0FD0FB680133204A32F85E
:1013E0001330FA889A422FD8FB6801331D4A32F82D
:1013F0001330BA889A4227D81B4AFB6813441A78DC
:10140000FB881748F96830F811105B1AF968013148
:101410001548415C0C461448F96801440978611A82
:1014200003FB01F1FB6801330D4830F813301C4613
:101430000B48FB6830F81330E31A91FBF3F3DBB28F
:101440001344FB72FB7A06E0FB680133FB60FB6828
:101450000A2BB0DD002318461037BD4690BC7047FC
:1014600074CF000898CF0008B0CF000880B584B0D2
:1014700000AF786016497868FFF77AFB0346154994
:101480001846FFF733FD034613491846FFF77AFC69
:101490000346FB604FF00001F868FFF711FE0346BA
:1014A000002B03D04FF00003FB6008E00A49F86806
:1014B000FFF724FE0346002B01D0074BFB60F868C2
:1014C000FFF74CFE0346DBB218461037BD4680BD21
:1014D000000058420000F0410000C8420000000037
:1014E0002DE9F043B7B010AF01F0B8F900F0FAFD04
:1014F00000F0E6FE00F052FE00F0B8FE00F07EFEC6
:1015000003F0F6F90022CA49CA4805F0D3FA1322BB
:10151000C949CA4805F018FBC84B03F58053DB687E
:101520001946C64806F048F9C449C54806F072FC99
:10153000C24806F016F9FFF769FEC24801F0ECFA5E
:101540004FF47A71BF4801F0C1FBBE4801F0C4FC02
:1015500003461A46BC4B1A60BB4B1B681846FEF785
:1015600051FFA5A3D3E90023FEF7B6FF02460B46C1
:1015700010461946A2A3D3E90023FFF7D7F8024685
:101580000B4610461946FFF77FFA03469AB2AF4B57
:101590001A80AE4B1B881846FEF734FF9AA3D3E996
:1015A0000023FEF799FF02460B461046194698A302
:1015B000D3E90023FFF7BAF802460B461046194656
:1015C000FFF762FA03469AB2A14B1A809D4801F0D8
:1015D00051FBFFF739FE9B4801F09EFA4FF47A71F8
:1015E000984801F073FB974801F076FC03461A46D1
:1015F000984B1A60974B1B681846FEF703FF7EA3B3
:10160000D3E90023FEF768FF02460B461046194651
:101610007BA3D3E90023FFF789F802460B46104667
:101620001946FFF731FA03469AB28B4B1A80874B63
:101630001B881846FEF7E6FE73A3D3E90023FEF7E6
:101640004BFF02460B461046194671A3D3E900230F
:10165000FFF76CF802460B4610461946FFF714FADE
:1016600003469AB27D4B1A807C4B1B881846FEF7C6
:10167000C9FE4FF000027A4BFFF758F802460B46BE
:1016800010461946FFF700FA03469AB2754B1A80C6
:101690006C4801F0EFFAFFF7F5FD6A4801F03CFAFB
:1016A0004FF47A71674801F011FB664801F014FCB1
:1016B00003461A466C4B1A606B4B1B681846FEF7C4
:1016C000A1FE4DA3D3E90023FEF706FF02460B4619
:1016D000104619464AA3D3E90023FFF727F802462C
:1016E0000B4610461946FFF7CFF903469AB25F4BF7
:1016F0001A805E4B1B881846FEF784FE46A3D3E98A
:101700000023FEF7E9FE02460B461046194644A3A5
:10171000D3E90023FFF70AF802460B4610461946A4
:10172000FFF7B2F903469AB2514B1A80504B1A8810
:10173000504BA3FB0213D21A520813445B099BB20D
:101740001A46D2001A441146C800114602460A44FD
:10175000520013449B009AB2474B1A80464B1B8899
:101760001A461201D31A9B009AB2444B1A80434B7B
:101770001B881846FEF746FE2BA3D3E90023FEF78D
:10178000ABFE02460B4610461946FFF77DF90346AD
:101790009AB23B4B1A802B4801F06CFAFFF790FD90
:1017A000284801F0B9F94FF47A71264801F08EFA11
:1017B000244801F091FB03461A46324B1A60314B24
:1017C0001B681846FEF71EFE0BA3D3E90023FEF7A5
:1017D00083FE02460B461046194609A3D3E90023AF
:1017E000FEF7A4FF02460B4610461946FFF76CF9B8
:1017F000034649E0AFF300806666666666660A40A7
:101800000000000000FEAF40CDCCCCCCCC8C5140D1
:101810009A999999999901409A99999999D94B408E
:10182000CDCCCCCCCCCC124092E9D0E97937563F24
:10183000E0CB000824020020E4CB00085412002072
:10184000ECCB0008802200207C2300204C230020C9
:101850004E2300208023002050230020522300200C
:101860000000E83F5423002084230020562300205A
:1018700058230020A5411AA45A2300205C230020ED
:101880005E23002088230020A34A1360A34B1B681B
:10189000A14A126811461846FFF76AF903461A462C
:1018A0009F4B1A609C4B1C689D4B1B689D4A12689D
:1018B00011461846FFF71AFB034619462046FFF764
:1018C00015FB03461A46984B1A60974B1B68974ABC
:1018D000126811461846FFF709FB03461846FEF743
:1018E000A3FD02460B46104619460AF087FF024642
:1018F0000B4610461946FFF7E7F803468C4A13607B
:101900008B4B1B688B4A126811461846FFF7EEFA9C
:1019100003461C46884B1B6819464FF07E50FFF764
:10192000E5FA034619462046FFF724F9034619460F
:101930004FF07E50FFF7DAFA03461A467F4B1A60E3
:101940007E4B1B681846FEF76FFD71A3D3E9002399
:10195000FEF70AFC02460B4610461946FFF7B4F89C
:101960000346774A1360774801F084F9764B1B8869
:10197000A7F89630754B1B88A7F89430B7F89420D9
:10198000B7F8963011461846FFF70AFD034687F868
:101990009330B7F896301846FFF7B0FC034687F847
:1019A0009230694B1B881846FFF794F90346184696
:1019B000FFF75CFD03461A46654B1A7001224FF48F
:1019C0000051644801F0AFFF0821634801F094FF23
:1019D0000346002B03D0614B01221A8002E05F4BCB
:1019E00000221A804FF400415D4801F085FF034654
:1019F000002B03D05B4B01221A8002E0594B0022DE
:101A00001A804FF48051544801F076FF0346002BB2
:101A100003D0554B01221A8002E0534B00221A805A
:101A20004FF400514C4801F067FF0346002B03D0F0
:101A30004E4B01221A8002E04C4B00221A804FF4D8
:101A40008041454801F058FF0346002B03D0484B26
:101A500001221A8002E0464B00221A804FF4004116
:101A60003D4801F049FF0346002B03D0414B0122C2
:101A70001A8002E03F4B00221A801021364801F004
:101A80003BFF0346002B09D03B4B01221A80012269
:101A90004FF400512F4801F046FF02E0364B002280
:101AA0001A8080212C4801F027FF0346002B03D029
:101AB000324B01221A8002E0304B00221A80402172
:101AC000254801F019FF0346002B03D02C4B0122BF
:101AD0001A8002E02A4B00221A8020211E4801F0C1
:101AE0000BFF0346002B03D0264B01221A8002E095
:101AF000244B00221A804FF48071174801F0FCFE3D
:101B00000346002B42D0204B01221A8041E000BF47
:101B10006666666666127140902300200800002009
:101B2000942300200C0000209823002004000020B3
:101B30009C2300200000002010000020A023002093
:101B4000A4230020802200204E23002054230020C4
:101B50008C23002000100140000C01406023002075
:101B60000008014062230020642300206623002037
:101B7000682300206C2300206A2300206E230020AD
:101B80007023002072230020742300201F4B0022AA
:101B90001A804FF400711E4801F0AEFE0346002B80
:101BA00003D01C4B01221A8002E01A4B00221A803B
:101BB000194B1B88012B3DD1184B1B88012B39D1A8
:101BC00097F89230052B35D8154B1B6815491846E8
:101BD000FFF780FA0346002B08D1114B1B6812490E
:101BE0001846FFF78BFA0346002B23D001224FF44F
:101BF00080410E4801F097FE01224FF400410B484E
:101C000001F091FE0A4B01221A8022E07423002089
:101C1000000C01407623002066230020682300206A
:101C2000A423002000007041000020420010014069
:101C30007823002000224FF48041B14801F073FE68
:101C400000224FF40041AE4801F06DFEAD4B002282
:101C50001A8032220021AC4806F09AF93222002183
:101C6000AA4806F095F932220021A94806F090F919
:101C700032220021A74806F08BF932220021A64823
:101C800006F086F932220021A44806F081F93222BA
:101C90000021A34806F07CF932220021A14806F079
:101CA00077F932220021A04806F072F93222002191
:101CB0009E4806F06DF9322200219D4806F068F931
:101CC000322200219B4806F063F9322200219A4813
:101CD00006F05EF932220021984806F059F93222C6
:101CE0000021974806F054F932220021954806F069
:101CF0004FF932220021944806F04AF9322200219D
:101D0000924806F045F932220021914806F040F948
:101D1000904B1B881A4690497B4806F0B3FF8F4BC7
:101D20001B881A468E49794806F0ACFF8D4B1B88FC
:101D30001A468D49764806F0A5FF8C4B1B6818465D
:101D4000FEF772FB02460B468949724806F09AFF7D
:101D5000884B1B881A4688496F4806F093FF874BCB
:101D60001B881A4686496D4806F08CFF854B1B88F8
:101D70001A4685496A4806F085FF844B1B881A4637
:101D80008349684806F07EFF824B1B881A468249C9
:101D9000654806F077FF814B1B881A4680496348E7
:101DA00006F070FF7F4B1B881A467F49604806F09B
:101DB00069FF7E4B1B881A467D495E4806F062FF2C
:101DC0007C4B1B881A467C495B4806F05BFF7B4BCB
:101DD0001B881A467A49594806F054FF794B1B88EC
:101DE0001A467949564806F04DFF784B1B881A462B
:101DF0007749544806F046FF97F893301A467549DC
:101E0000524806F03FFF97F892301A4672494E4802
:101E100006F038FF714B1B781A4671494C4806F0A2
:101E200031FF13226F49704804F08EFE6E4B03F5AC
:101E30008053DB6819466C4805F0BEFC6A4932489D
:101E400005F0E8FF6849314805F0E4FF664931488C
:101E500005F0E0FF6449304805F0DCFF62492F4897
:101E600005F0D8FF60492E4805F0D4FF5E492D48A3
:101E700005F0D0FF5C492C4805F0CCFF5A492B48AF
:101E800005F0C8FF58492A4805F0C4FF56492948BB
:101E900005F0C0FF5449284805F0BCFF52492748C7
:101EA00005F0B8FF5049264805F0B4FF4E492548D3
:101EB00005F0B0FF4C49254805F0ACFF4A492248DF
:101EC00005F0A8FF4849224805F0A4FF46494748C5
:101ED00005F0A0FF4449464805F09CFF424805F044
:101EE00040FC1C4B1B8898461C4B1B8899461D4B7D
:101EF0001B887B621D4B1B681846FFF709F979E0C8
:101F00000010014078230020A8230020DC230020BB
:101F1000102400204424002078240020AC24002039
:101F2000E024002014250020482500207C250020E6
:101F3000B0250020E4250020182600204C26002093
:101F400080260020B4260020E82600201C27002040
:101F5000502700204E23002008CC000854230020E6
:101F600024CC00085E2300203CCC0008A4230020E1
:101F700050CC00086023002068CC000862230020B9
:101F800078CC00086423002088CC00086623002059
:101F90009CCC000868230020B0CC00086C230020F3
:101FA000C4CC00086A230020DCCC00086E2300208B
:101FB000ECCC00087023002000CD00087223002024
:101FC00014CD0008742300202CCD000876230020B7
:101FD00040CD000854CD000864CD00088C230020BB
:101FE00074CD0008E4CB00085412002084270020A0
:101FF000B827002005462D4B1B883B622C4B1B88C5
:10200000FB612C4B1B88BB612B4B1B887B612B4BD3
:102010001B883B612A4B1B88FB602A4B1B88BB60DB
:10202000294B1B887B60294B1B883B60284B1B88F6
:102030001E46284B1B881C46274B1B88194697F8C1
:10204000922097F8933007F128000F930E920D918C
:102050000C940B963A680A927A680992BA680892C8
:10206000FA6807923A6906927A690592BA69049207
:10207000FA6903923A6A029201957B6A00934B4691
:102080004246164906F0FEFDC7F88C00D7F88C30A2
:102090009AB207F128014FF47A73114802F0BDFAA1
:1020A0004FF47A7000F03CFCFFF745BA6023002043
:1020B0006223002064230020662300206823002080
:1020C0006C2300206A2300206E2300207023002050
:1020D00072230020742300207623002090CD000876
:1020E0000823002080B594B000AF07F12803282210
:1020F0000021184605F04CFF07F1140300221A6076
:102100005A609A60DA601A613B1D00221A605A60B8
:102110009A60DA600123BB624FF48033FB620023D4
:102120003B630123BB6302237B644FF48033BB64B6
:102130004FF4E013FB6407F12803184601F00CFC90
:102140000346002B01D000F059F90F237B610223D5
:10215000BB610023FB614FF480633B6200237B6221
:1021600007F114030221184601F078FE0346002B04
:1021700001D000F043F902237B604FF40043FB6081
:102180003B1D184602F002F80346002B01D000F078
:1021900035F900BF5037BD4680BD000080B584B022
:1021A00000AF3B1D00221A605A609A60114B124A20
:1021B0001A60104B4FF480729A600E4B01221A7312
:1021C0000C4B00221A750B4B4FF46022DA61094B5D
:1021D00000225A60074B04221A61064800F0C4FB33
:1021E0000346002B01D000F009F900BF1037BD46AF
:1021F00080BD00BF802200200024014080B500AFD8
:10220000184B194A1A60174B4FF482725A60154BDB
:1022100000229A60134B4FF40062DA60114B0022E7
:102220001A61104B00225A610E4B4FF400729A61F2
:102230000C4B1022DA610B4B00221A62094B002270
:102240005A62084B00229A62064B0A22DA6205485B
:1022500002F012F90346002B01D000F0CFF800BFC6
:1022600080BD00BFB02200200030014080B500AF2B
:10227000114B124A1A60104B4FF416525A600E4B13
:1022800000229A600C4B0022DA600B4B00221A618C
:10229000094B0C225A61084B00229A61064B00221E
:1022A000DA61054802F06CF90346002B01D000F01A
:1022B000A5F800BF80BD00BF082300200038014002
:1022C00080B588B000AF07F1100300221A605A6091
:1022D0009A60DA60454B9B69444A43F0100393616E
:1022E000424B9B6903F01003FB60FB683F4B9B690B
:1022F0003E4A43F0200393613C4B9B6903F020036B
:10230000BB60BB68394B9B69384A43F00403936157
:10231000364B9B6903F004037B607B68334B9B69FE
:10232000324A43F008039361304B9B6903F0080382
:102330003B603B6800224FF460412D4801F0F3FA06
:10234000002208212B4801F0EEFA00224FF4004150
:10235000294801F0E8FA4FF460433B6101237B61B7
:102360000023BB610223FB6107F1100319462048DB
:1023700001F03EF908233B6101237B610023BB612F
:102380000223FB6107F1100319461A4801F030F9E6
:1023900047F2F8333B6100237B610023BB6107F107
:1023A00010031946144801F023F94FF400433B6130
:1023B00001237B610023BB610223FB6107F1100352
:1023C00019460D4801F014F94FF401433B61002315
:1023D0007B610023BB6107F110031946054801F03A
:1023E00007F900BF2037BD4680BD00BF0010024086
:1023F0000010014000080140000C014080B400AF13
:1024000072B600BFFEE7000080B485B000AF154B88
:102410009B69144A43F001039361124B9B6903F0DB
:102420000103BB60BB680F4BDB690E4A43F080536E
:10243000D3610C4BDB6903F080537B607B680A4BF4
:102440005B68FB60FB6823F0E063FB60FB6843F0C4
:102450000073FB60044AFB68536000BF1437BD463D
:1024600080BC7047001002400000014080B588B079
:1024700000AF786007F1100300221A605A609A607A
:10248000DA607B681B68184A934229D1174B9B6915
:10249000164A43F400739361144B9B6903F4007371
:1024A000FB60FB68114B9B69104A43F00403936186
:1024B0000E4B9B6903F00403BB60BB6817233B61B1
:1024C00003237B6107F110031946094801F090F8D6
:1024D00000220021122001F054F8122001F06DF8C2
:1024E00000BF2037BD4680BD0024014000100240DF
:1024F0000008014080B588B000AF786007F1100394
:1025000000221A605A609A60DA607B681B681B4A76
:1025100093422FD11A4B9B69194A43F4805393611C
:10252000174B9B6903F48053FB60FB68144B9B695A
:10253000134A43F004039361114B9B6903F00403B6
:10254000BB60BB68A0233B6102237B610323FB616B
:1025500007F1100319460B4801F04AF840233B618C
:1025600000237B610023BB6107F110031946054876
:1025700001F03EF800BF2037BD4680BD003001406D
:10258000001002400008014080B588B000AF7860BC
:1025900007F1100300221A605A609A60DA607B68C3
:1025A0001B681C4A934231D11B4B9B691A4A43F466
:1025B00080439361184B9B6903F48043FB60FB6885
:1025C000154B9B69144A43F004039361124B9B69BA
:1025D00003F00403BB60BB684FF400733B6102234C
:1025E0007B610323FB6107F1100319460B4800F0E0
:1025F000FFFF4FF480633B6100237B610023BB61DD
:1026000007F110031946054800F0F2FF00BF20371C
:10261000BD4680BD00380140001002400008014066
:1026200080B400AFFEE780B400AFFEE780B400AF37
:10263000FEE780B400AFFEE780B400AFFEE780B4F1
:1026400000AF00BFBD4680BC704780B400AF00BF84
:10265000BD4680BC704780B400AF00BFBD4680BCA3
:10266000704780B500AF00F03FF900BF80BD0000AB
:1026700080B500AF024800F03BFC00BF80BD00BF4A
:102680008022002080B400AF01231846BD4680BCE4
:10269000704780B582B000AF7860396005F04EFCBD
:1026A000034616221A604FF0FF3318460837BD461E
:1026B00080BD80B582B000AF78604FF0FF317868A0
:1026C000FFF7E7FFFEE780B586B000AFF860B960BE
:1026D0007A6000237B610AE0AFF300800146BB68AB
:1026E0005A1CBA60CAB21A707B6901337B617A697D
:1026F0007B689A42F0DB7B6818461837BD4680BD80
:1027000080B586B000AFF860B9607A6000237B6165
:1027100009E0BB685A1CBA601B781846AFF300800A
:102720007B6901337B617A697B689A42F1DB7B6864
:1027300018461837BD4680BD80B483B000AF7860BE
:102740004FF0FF3318460C37BD4680BC704780B44D
:1027500083B000AF786039603B684FF400525A6034
:10276000002318460C37BD4680BC704780B483B048
:1027700000AF7860012318460C37BD4680BC704717
:1027800080B485B000AFF860B9607A600023184665
:102790001437BD4680BC704780B586B000AF786006
:1027A000144A154BD31A7B617B693B61134B1B6841
:1027B000002B02D1114B124A1A60104B1A687B6829
:1027C00013443A699A4207D205F0B8FB03460C223B
:1027D0001A604FF0FF3309E0084B1B68FB60074BA2
:1027E0001A687B681344054A1360FB68184618375B
:1027F000BD4680BD0050002000040000EC270020F2
:102800003828002080B400AF00BFBD4680BC7047B0
:102810000C480D490D4A002302E0D458C45004333B
:10282000C4188C42F9D30A4A0A4C002301E0136011
:102830000432A242FBD3FFF7E5FF05F085FBFEF76C
:102840004FFE7047000000200802002004D5000859
:102850000802002038280020FEE7000080B500AF05
:10286000084B1B68074A43F010031360032000F075
:102870007DFE0F2000F008F8FFF7C6FD0023184684
:1028800080BD00BF0020024080B582B000AF7860FC
:10289000124B1A68124B1B7819464FF47A73B3FB2C
:1028A000F1F3B2FBF3F3184600F095FE0346002B5C
:1028B00001D001230EE07B680F2B0AD80022796833
:1028C0004FF0FF3000F05DFE064A7B681360002386
:1028D00000E0012318460837BD4680BD14000020E3
:1028E0001C0000201800002080B400AF054B1B78AE
:1028F0001A46054B1B681344034A136000BFBD46CC
:1029000080BC70471C000020F027002080B400AF7E
:10291000024B1B681846BD4680BC7047F02700205C
:1029200080B584B000AF7860FFF7F0FFB8607B68D7
:10293000FB60FB68B3F1FF3F05D00A4B1B781A46DA
:10294000FB681344FB6000BFFFF7E0FF0246BB6873
:10295000D31AFA689A42F7D800BF00BF1037BD46B5
:1029600080BD00BF1C00002080B586B000AF78603D
:102970000023FB7500233B610023BB600023FB6049
:102980007B68002B01D10123BEE07B689B68002B94
:102990007B689B6A002B09D17B680022DA627B6826
:1029A000002283F824207868FFF760FD786800F043
:1029B000C7FC0346FB757B689B6A03F01003002B82
:1029C00040F09980FB7D002B40F095807B689B6AEE
:1029D00023F4885323F0020343F002027B689A62D7
:1029E0007B685A687B68DB691A437B681B7B5B00EA
:1029F0001343BA681343BB607B689B68B3F5807F61
:102A000003D07B689B68012B02D14FF4807300E0F8
:102A100000233A6913433B617B681B7D012B19D16D
:102A20007B681B7B002B09D17B689B69013B5A03A8
:102A30003B69134343F400633B610BE07B689B6A93
:102A400043F020027B689A627B68DB6A43F00102F4
:102A50007B68DA627B681B685B6823F469417B688A
:102A60001B683A690A435A607B681B689A68284B5E
:102A700013407A681268B9680B4393607B689B685F
:102A8000B3F5807F03D07B689B68012B04D17B6802
:102A90001B69013B1B05FB607B681B68DB6A23F439
:102AA00070017B681B68FA680A43DA627B681B68FE
:102AB0009A68184B1340BA689A420BD17B6800227F
:102AC000DA627B689B6A23F0030343F001027B68B0
:102AD0009A6218E07B689B6A23F0120343F01002AD
:102AE0007B689A627B68DB6A43F001027B68DA628A
:102AF0000123FB7507E07B689B6A43F010027B684B
:102B00009A620123FB75FB7D18461837BD4680BDD0
:102B1000FDF7E1FFFE0E1FFF80B584B000AF7860C7
:102B20000023FB737B6893F82430012B01D102232F
:102B300098E07B68012283F82420786800F0A6FBE7
:102B40000346FB73FB7B002B40F087807B689B6A0E
:102B500023F4407323F0010343F480727B689A628C
:102B60007B681B68414A934205D1414B5B6803F483
:102B70007023002B15D17B689B6A23F480127B683D
:102B80009A627B681B685B6803F48063002B26D025
:102B90007B689B6A23F4405343F480527B689A62BB
:102BA0001DE07B689B6A43F480127B689A627B68B5
:102BB0001B682F4A934204D07B681B682B4A9342C0
:102BC0000DD12B4B5B6803F48063002B07D07B682F
:102BD0009B6A23F4405343F480527B689A627B687B
:102BE0009B6A03F48053002B06D07B68DB6A23F0DA
:102BF00006027B68DA6202E07B680022DA627B68A8
:102C0000002283F824207B681B686FF002021A60A0
:102C10007B681B689B6803F46023B3F5602F13D1B6
:102C20007B681B68114A934205D1114B5B6803F422
:102C30007023002B08D17B681B689A687B681B682F
:102C400042F4A0029A600CE07B681B689A687B687B
:102C50001B6842F480129A6003E07B68002283F8CC
:102C60002420FB7B18461037BD4680BD002801405C
:102C70000024014080B584B000AF78600023FB736E
:102C80007B6893F82430012B01D102231AE07B6882
:102C9000012283F82420786800F052FB0346FB737E
:102CA000FB7B002B09D17B689B6A23F4885323F0BC
:102CB000010343F001027B689A627B68002283F87B
:102CC0002420FB7B18461037BD4680BD90B587B0E9
:102CD00000AF7860396000237B610023FB60002334
:102CE0003B61FFF713FE78617B681B689B6803F408
:102CF0008073002B0BD07B689B6A43F020027B68BB
:102D00009A627B68002283F824200123D3E07B6849
:102D10001B685B6803F48073002B31D17B681B68F0
:102D2000DB6A03F47003002B2AD121E03B68B3F186
:102D3000FF3F1DD03B68002B07D0FFF7E7FD0246A1
:102D40007B69D31A3A689A4212D27B681B681B6867
:102D500003F00203002B0BD17B689B6A43F0040253
:102D60007B689A627B68002283F824200323A2E018
:102D70007B681B681B6803F00203002BD6D070E051
:102D80004F4B1C68022001F0B7FA0346B4FBF3F284
:102D90007B681B6819694B4B0B40002B18D17B6873
:102DA0001B68D968484B0B40002B11D17B681B680E
:102DB0001969464B0B40002B08D17B681B68D9680A
:102DC000434B0B40002B01D1142320E029231EE0AC
:102DD0007B681B6819693D4B0B40002B06D17B6853
:102DE0001B68D9683A4B0B40002B0DD07B681B68E1
:102DF0001969384B0B40002B08D17B681B68D968D8
:102E0000344B0B40002B01D1542300E0FC2302FB88
:102E100003F33B6121E03B68B3F1FF3F1AD03B680D
:102E2000002B07D0FFF772FD02467B69D31A3A6880
:102E30009A420FD2FB683A699A420BD97B689B6A27
:102E400043F004027B689A627B68002283F82420A6
:102E5000032330E0FB680133FB60FB683A699A4268
:102E6000D9D87B681B686FF012021A607B689B6A76
:102E700043F400727B689A627B681B689B6803F46A
:102E80006023B3F5602F15D17B681B7B002B11D11C
:102E90007B689B6A23F480727B689A627B689B6A7A
:102EA00003F48053002B05D17B689B6A43F0010239
:102EB0007B689A62002318461C37BD4690BD00BF50
:102EC000140000202449922424499200922449129B
:102ED000922449004992240080B483B000AF786006
:102EE0007B681B68DB6C18460C37BD4680BC70479E
:102EF00080B582B000AF78607B681B685B6803F0C8
:102F00002003202B40D17B681B681B6803F0020361
:102F1000022B39D17B689B6A03F01003002B05D18B
:102F20007B689B6A43F400727B689A627B681B68CB
:102F30009B6803F46023B3F5602F1DD17B681B7B76
:102F4000002B19D17B681B685A687B681B6822F0CC
:102F500020025A607B689B6A23F480727B689A62C5
:102F60007B689B6A03F48053002B05D17B689B6AC6
:102F700043F001027B689A62786800F07CF87B6815
:102F80001B686FF012021A607B681B685B6803F0B5
:102F90008003802B4FD17B681B681B6803F0040300
:102FA000042B48D17B689B6A03F01003002B05D1EA
:102FB0007B689B6A43F400527B689A627B681B685B
:102FC0009B6803F4E043B3F5E04F12D07B681B68C5
:102FD0005B6803F48063002B25D17B681B689B68CA
:102FE00003F46023B3F5602F1DD17B681B7B002B9E
:102FF00019D17B681B685A687B681B6822F08002C5
:103000005A607B689B6A23F480527B689A627B6873
:103010009B6A03F48073002B05D17B689B6A43F0A5
:1030200001027B689A62786800F0CBF97B681B68C4
:103030006FF00C021A607B681B685B6803F040034A
:10304000402B14D17B681B681B6803F00103012B24
:103050000DD17B689B6A43F480327B689A62786802
:1030600000F012F87B681B686FF001021A6000BF65
:103070000837BD4680BD80B483B000AF786000BF24
:103080000C37BD4680BC704780B483B000AF786019
:1030900000BF0C37BD4680BC7047000080B485B0CF
:1030A00000AF786039600023FB730023BB607B684E
:1030B00093F82430012B01D10223DCE07B6801224C
:1030C00083F824203B685B68062B1CD87B681B6850
:1030D000596B3B685A6813469B001344053B1F22FB
:1030E00002FA03F3DB4319403B6818683B685A68EF
:1030F00013469B001344053B00FA03F27B681B68F0
:103100000A435A633CE03B685B680C2B1CD87B6825
:103110001B68196B3B685A6813469B001344233B9A
:103120001F2202FA03F3DB4319403B6818683B682F
:103130005A6813469B001344233B00FA03F27B6852
:103140001B680A431A631BE07B681B68D96A3B68EB
:103150005A6813469B001344413B1F2202FA03F3B3
:10316000DB4319403B6818683B685A6813469B006C
:103170001344413B00FA03F27B681B680A43DA629E
:103180003B681B68092B1CD97B681B68D9683B68A6
:103190001A6813465B0013441E3B072202FA03F32E
:1031A000DB4319403B6898683B681A6813465B002C
:1031B00013441E3B00FA03F27B681B680A43DA6083
:1031C00019E07B681B6819693B681A6813465B0045
:1031D0001344072202FA03F3DB4319403B68986863
:1031E0003B681A6813465B00134400FA03F27B68DD
:1031F0001B680A431A613B681B68102B03D03B68AD
:103200001B68112B32D17B681B681D4A934225D164
:103210007B681B689B6803F40003002B26D17B6846
:103220001B689A687B681B6842F400029A603B68DE
:103230001B68102B1AD1134B1B68134AA2FB0323E4
:103240009A0C13469B0013445B00BB6002E0BB6812
:10325000013BBB60BB68002BF9D107E07B689B6A30
:1032600043F020027B689A620123FB737B68002293
:1032700083F82420FB7B18461437BD4680BC70477A
:10328000002401401400002083DE1B4380B584B07D
:1032900000AF78600023FB600023BB607B681B6885
:1032A0009B6803F00103012B40D07B681B689A6880
:1032B0007B681B6842F001029A601F4B1B681F4A23
:1032C000A2FB03239B0CBB6002E0BB68013BBB601D
:1032D000BB68002BF9D1FFF719FBF8601FE0FFF77F
:1032E00015FB0246FB68D31A022B18D97B681B68B2
:1032F0009B6803F00103012B11D07B689B6A43F0AC
:1033000010027B689A627B68DB6A43F001027B688B
:10331000DA627B68002283F82420012307E07B68BF
:103320001B689B6803F00103012BD8D100231846CA
:103330001037BD4680BD00BF1400002083DE1B4354
:1033400080B584B000AF78600023FB607B681B68A9
:103350009B6803F00103012B2ED17B681B689A68E0
:103360007B681B6822F001029A60FFF7CFFAF860D1
:103370001BE0FFF7CBFA0246FB68D31A022B14D9E5
:103380007B681B689B6803F00103012B0DD17B68F0
:103390009B6A43F010027B689A627B68DB6A43F0A9
:1033A00001027B68DA62012307E07B681B689B6887
:1033B00003F00103012BDCD0002318461037BD4673
:1033C00080BD80B483B000AF786000BF0C37BD46CD
:1033D00080BC704780B485B000AF78607B6803F034
:1033E0000703FB600C4BDB68BB60BA684FF6FF035A
:1033F0001340BB60FB681A02BB68134343F0BF6312
:1034000043F40033BB60044ABB68D36000BF143789
:10341000BD4680BC704700BF00ED00E080B400AF47
:10342000044BDB681B0A03F007031846BD4680BC4B
:10343000704700BF00ED00E080B483B000AF0346EA
:10344000FB7197F90730002B0BDBFB7903F01F02B0
:10345000064997F907305B09012000FA02F241F8AA
:10346000232000BF0C37BD4680BC704700E100E060
:1034700080B483B000AF03463960FB7197F9073021
:10348000002B0ADB3B68DAB20C4997F907301201CE
:10349000D2B20B4483F800230AE03B68DAB2084951
:1034A000FB7903F00F03043B1201D2B20B441A76EE
:1034B00000BF0C37BD4680BC704700BF00E100E094
:1034C00000ED00E080B489B000AFF860B9607A60C8
:1034D000FB6803F00703FB61FB69C3F10703042BDF
:1034E00028BF0423BB61FB690433062B02D9FB69A7
:1034F000033B00E000237B614FF0FF32BB6902FA1F
:1035000003F3DA43BB681A407B699A404FF0FF31FE
:103510007B6901FA03F3D9437B680B4013431846D8
:103520002437BD4680BC704780B582B000AF78605C
:103530007B68013BB3F1807F01D301230FE00A4A8E
:103540007B68013B53600F214FF0FF30FFF790FF86
:10355000054B00229A60044B07221A60002318468C
:103560000837BD4680BD00BF10E000E080B582B0E6
:1035700000AF78607868FFF72DFF00BF0837BD46C1
:1035800080BD80B586B000AF0346B9607A60FB733A
:1035900000237B61FFF742FF78617A68B968786938
:1035A000FFF790FF024697F90F3011461846FFF7D4
:1035B0005FFF00BF1837BD4680BD80B582B000AF49
:1035C0000346FB7197F907301846FFF735FF00BF38
:1035D0000837BD4680BD80B582B000AF786078689E
:1035E000FFF7A2FF034618460837BD4680BD00001E
:1035F00080B48BB000AF7860396000237B62002319
:103600003B6269E101227B6A02FA03F3FB613B68DA
:103610001B68FA691340BB61BA69FB699A4240F0C2
:1036200058813B685B689A4A93425ED0984A9342BD
:1036300075D8984A934258D0964A93426FD8964A82
:10364000934252D0944A934269D8944A93424CD0C0
:10365000924A934263D8924A934246D0904A934208
:103660005DD8122B2AD8122B59D801A252F823F078
:10367000EB360008C5360008D736000819370008B1
:103680001F3700081F3700081F3700081F370008C2
:103690001F3700081F3700081F3700081F370008B2
:1036A0001F3700081F3700081F3700081F370008A2
:1036B0001F370008CD360008E1360008794A9342EA
:1036C00013D02CE03B68DB683B6229E03B68DB6899
:1036D00004333B6224E03B68DB6808333B621FE055
:1036E0003B68DB680C333B621AE03B689B68002B4D
:1036F00002D104233B6213E03B689B68012B05D198
:1037000008233B627B68FA691A6109E008233B627F
:103710007B68FA695A6103E000233B6200E000BF66
:10372000BB69FF2B01D87B6801E07B6804337B61B8
:10373000BB69FF2B02D87B6A9B0002E07B6A083BD7
:103740009B003B617B691A680F213B6901FA03F317
:10375000DB431A40396A3B6901FA03F31A437B6978
:103760001A603B685B6803F08053002B00F0B18067
:103770004D4B9B694C4A43F0010393614A4B9B6953
:1037800003F00103BB60BB68484A7B6A9B080233B5
:1037900052F82330FB607B6A03F003039B000F2287
:1037A00002FA03F3DB43FA681340FB607B68404A8C
:1037B000934213D07B683F4A93420DD07B683E4AC8
:1037C000934207D07B683D4A934201D1032306E030
:1037D000042304E0022302E0012300E000237A6ACC
:1037E00002F0030292009340FA681343FB602F49F2
:1037F0007B6A9B080233FA6841F823203B685B68C8
:1038000003F48033002B06D02D4B1A682C49BB697A
:1038100013430B6006E02A4B1A68BB69DB43284957
:1038200013400B603B685B6803F40033002B06D049
:10383000234B5A682249BB6913434B6006E0204B77
:103840005A68BB69DB431E4913404B603B685B68A9
:1038500003F48013002B06D0194B9A681849BB69F2
:1038600013438B6006E0164B9A68BB69DB4314492F
:1038700013408B603B685B6803F40013002B21D07E
:103880000F4BDA680E49BB691343CB6021E000BFE0
:103890000000321000003110000022100000211042
:1038A0000000121000001110001002400000014042
:1038B00000080140000C01400010014000140140CC
:1038C000000401400B4BDA68BB69DB430949134034
:1038D000CB607B6A01337B623B681A687B6A22FAA1
:1038E00003F3002B7FF48EAE00BF00BF2C37BD4624
:1038F00080BC70470004014080B485B000AF7860A0
:103900000B467B807B689A687B881340002B02D033
:103910000123FB7301E00023FB73FB7B1846143784
:10392000BD4680BC704780B483B000AF78600B4662
:103930007B8013467B707B78002B03D07A887B6872
:103940001A6103E07B881A047B681A6100BF0C3798
:10395000BD4680BC7047000080B586B000AF78607F
:103960007B68002B01D1012372E27B681B6803F0A6
:103970000103002B00F08780924B5B6803F00C037F
:10398000042B0CD08F4B5B6803F00C03082B12D177
:103990008C4B5B6803F48033B3F5803F0BD1894BCC
:1039A0001B6803F40033002B6CD07B685B68002B32
:1039B00068D101234CE27B685B68B3F5803F06D198
:1039C000804B1B687F4A43F4803313602EE07B6892
:1039D0005B68002B0CD17B4B1B687A4A23F4803345
:1039E0001360784B1B68774A23F4802313601DE033
:1039F0007B685B68B3F5A02F0CD1724B1B68714AD2
:103A000043F4802313606F4B1B686E4A43F480338A
:103A100013600BE06B4B1B686A4A23F4803313601E
:103A2000684B1B68674A23F4802313607B685B68DC
:103A3000002B13D0FEF76AFF386108E0FEF766FF3F
:103A400002463B69D31A642B01D9032300E25D4B84
:103A50001B6803F40033002BF0D014E0FEF756FF90
:103A6000386108E0FEF752FF02463B69D31A642B27
:103A700001D90323ECE1534B1B6803F40033002B03
:103A8000F0D100E000BF7B681B6803F00203002B4D
:103A900063D04C4B5B6803F00C03002B0BD0494BFD
:103AA0005B6803F00C03082B1CD1464B5B6803F4E6
:103AB0008033002B16D1434B1B6803F00203002B0D
:103AC00005D07B681B69012B01D00123C0E13D4B70
:103AD0001B6823F0F8027B685B69DB0039491343FC
:103AE0000B603AE07B681B69002B20D0364B01222B
:103AF0001A60FEF70BFF386108E0FEF707FF024689
:103B00003B69D31A022B01D90323A1E12D4B1B687A
:103B100003F00203002BF0D02A4B1B6823F0F802BD
:103B20007B685B69DB00274913430B6015E0264B7C
:103B300000221A60FEF7EAFE386108E0FEF7E6FEB2
:103B400002463B69D31A022B01D9032380E11D4BA6
:103B50001B6803F00203002BF0D17B681B6803F0A5
:103B60000803002B3AD07B689B69002B19D0174BB8
:103B700001221A60FEF7CAFE386108E0FEF7C6FEB1
:103B800002463B69D31A022B01D9032360E10D4B96
:103B90005B6A03F00203002BF0D0012000F0D8FA9A
:103BA0001CE00A4B00221A60FEF7B0FE38610FE0FD
:103BB000FEF7ACFE02463B69D31A022B08D9032359
:103BC00046E100BF00100240000042428004424231
:103BD000924B5B6A03F00203002BE9D17B681B6800
:103BE00003F00403002B00F0A6800023FB758B4B31
:103BF000DB6903F08053002B0DD1884BDB69874ACA
:103C000043F08053D361854BDB6903F08053BB6085
:103C1000BB680123FB75824B1B6803F48073002B88
:103C200018D17F4B1B687E4A43F480731360FEF704
:103C30006DFE386108E0FEF769FE02463B69D31A63
:103C4000642B01D9032303E1754B1B6803F48073D4
:103C5000002BF0D07B68DB68012B06D16F4B1B6A11
:103C60006E4A43F0010313622DE07B68DB68002B92
:103C70000CD16A4B1B6A694A23F001031362674B3C
:103C80001B6A664A23F0040313621CE07B68DB684E
:103C9000052B0CD1614B1B6A604A43F0040313628D
:103CA0005E4B1B6A5D4A43F0010313620BE05B4B02
:103CB0001B6A5A4A23F001031362584B1B6A574A86
:103CC00023F0040313627B68DB68002B15D0FEF73A
:103CD0001DFE38610AE0FEF719FE02463B69D31A61
:103CE00041F28832934201D90323B1E04B4B1B6A66
:103CF00003F00203002BEED014E0FEF707FE38615C
:103D00000AE0FEF703FE02463B69D31A41F288320D
:103D1000934201D903239BE0404B1B6A03F002034B
:103D2000002BEED1FB7D012B05D13C4BDB693B4ADF
:103D300023F08053D3617B68DB69002B00F0878020
:103D4000364B5B6803F00C03082B61D07B68DB69A2
:103D5000022B46D1334B00221A60FEF7D7FD3861A3
:103D600008E0FEF7D3FD02463B69D31A022B01D9C6
:103D700003236DE0294B1B6803F00073002BF0D187
:103D80007B681B6AB3F5803F08D1244B5B6823F442
:103D900000327B689B68214913434B601F4B5B6873
:103DA00023F474127B68196A7B685B6A0B431B49B6
:103DB00013434B601B4B01221A60FEF7A7FD3861CD
:103DC00008E0FEF7A3FD02463B69D31A022B01D996
:103DD00003233DE0114B1B6803F00073002BF0D070
:103DE00035E0104B00221A60FEF790FD386108E0C4
:103DF000FEF78CFD02463B69D31A022B01D903233F
:103E000026E0064B1B6803F00073002BF0D11EE088
:103E10007B68DB69012B07D1012319E00010024008
:103E200000700040600042420B4B5B68FB60FB6827
:103E300003F480327B681B6A9A4206D1FB6803F464
:103E400070127B685B6A9A4201D0012300E0002374
:103E500018461837BD4680BD0010024080B584B0BA
:103E600000AF786039607B68002B01D10123D0E07E
:103E70006A4B1B6803F007033A689A4210D9674BF4
:103E80001B6823F0070265493B6813430B60634BD3
:103E90001B6803F007033A689A4201D00123B8E097
:103EA0007B681B6803F00203002B20D07B681B6833
:103EB00003F00403002B05D0594B5B68584A43F4C8
:103EC000E06353607B681B6803F00803002B05D098
:103ED000534B5B68524A43F460535360504B5B68EA
:103EE00023F0F0027B689B684D4913434B607B686D
:103EF0001B6803F00103002B40D07B685B68012B3B
:103F000007D1474B1B6803F40033002B15D1012365
:103F10007FE07B685B68022B07D1414B1B6803F095
:103F20000073002B09D1012373E03D4B1B6803F0A4
:103F30000203002B01D101236BE0394B5B6823F0B6
:103F400003027B685B68364913434B60FEF7DEFC77
:103F5000F8600AE0FEF7DAFC0246FB68D31A41F289
:103F60008832934201D9032353E02D4B5B6803F061
:103F70000C027B685B689B009A42EBD1274B1B6865
:103F800003F007033A689A4210D2244B1B6823F0CF
:103F9000070222493B6813430B60204B1B6803F068
:103FA00007033A689A4201D0012332E07B681B681C
:103FB00003F00403002B08D0194B5B6823F4E06284
:103FC0007B68DB68164913434B607B681B6803F012
:103FD0000803002B09D0124B5B6823F460527B6806
:103FE0001B69DB000E4913434B6000F021F80246C9
:103FF0000B4B5B681B0903F00F030A49CB5C22FAE9
:1040000003F3094A1360094B1B681846FEF73CFC92
:10401000002318461037BD4680BD00BF0020024077
:1040200000100240BCCF000814000020180000203F
:1040300090B48AB000AF294B3C1D0FCB84E80F0031
:1040400040F201233B800023FB610023BB6100237E
:104050007B6200237B6100233B62214B5B68FB6139
:10406000FB6903F00C03042B02D0082B03D02BE0D8
:104070001C4B3B622BE0FB699B0C03F00F032833C6
:104080003B4413F8243C7B61FB6903F48033002B31
:1040900012D0134B5B685B0C03F0010328333B44E5
:1040A00013F8283CBB617B690E4A03FB02F2BB6933
:1040B000B2FBF3F37B6204E07B690B4A02FB03F380
:1040C0007B627B6A3B6202E0064B3B6200BF3B6A5D
:1040D00018462837BD4690BC704700BF10CF000877
:1040E0000010024000127A0000093D0080B400AFC9
:1040F000024B1B681846BD4680BC70471400002068
:1041000080B500AFFFF7F2FF0246054B5B681B0A64
:1041100003F007030349CB5C22FA03F3184680BD82
:1041200000100240CCCF000880B500AFFFF7DEFFE3
:104130000246054B5B68DB0A03F007030349CB5CCF
:1041400022FA03F3184680BD00100240CCCF0008CD
:1041500080B485B000AF78600A4B1B680A4AA2FBA6
:1041600003235B0A7A6802FB03F3FB6000BFFB6872
:104170005A1EFA60002BF9D100BF00BF1437BD46AC
:1041800080BC704714000020D34D621080B586B00B
:1041900000AF786000233B610023FB607B681B68F5
:1041A00003F00103002B7DD00023FB754F4BDB692F
:1041B00003F08053002B0DD14C4BDB694B4A43F08D
:1041C0008053D361494BDB6903F08053BB60BB680C
:1041D0000123FB75464B1B6803F48073002B18D139
:1041E000434B1B68424A43F480731360FEF78EFB17
:1041F000386108E0FEF78AFB02463B69D31A642B5C
:1042000001D903236DE03A4B1B6803F48073002B44
:10421000F0D0364B1B6A03F44073FB60FB68002B45
:104220002ED07B685B6803F44073FA689A4227D00B
:104230002E4B1B6A23F44073FB602E4B01221A6045
:104240002C4B00221A60294AFB681362FB6803F0BA
:104250000103002B14D0FEF759FB38610AE0FEF78A
:1042600055FB02463B69D31A41F28832934201D989
:10427000032336E01D4B1B6A03F00203002BEED034
:104280001A4B1B6A23F440727B685B68174913431F
:104290000B62FB7D012B05D1144BDB69134A23F024
:1042A0008053D3617B681B6803F00203002B08D0A6
:1042B0000E4B5B6823F440427B689B680B491343B9
:1042C0004B607B681B6803F01003002B08D0074B82
:1042D0005B6823F480027B68DB68044913434B600E
:1042E000002318461837BD4680BD00BF00100240AD
:1042F000007000404004424290B58DB000AF78603D
:10430000584B07F10C040FCB84E80F0040F2012357
:104310003B8100237B620023FB6200233B6200237E
:10432000FB610023BB627B68102B0AD07B68102BDB
:1043300000F28E807B68012B49D07B68022B79D0FC
:1043400086E0494B5B68FB61474B1B6803F0807359
:10435000002B7FD0FB699B0C03F00F0330333B44F1
:1043600013F8243C3B62FB6903F48033002B17D025
:104370003D4B5B685B0C03F0010330333B4413F8A7
:10438000283C7B62FB6903F48033002B0DD0374A55
:104390007B6AB2FBF3F23B6A02FB03F3FB6204E0CD
:1043A0003B6A334A02FB03F3FB622F4B5B6803F467
:1043B0008003B3F5800F02D1FB6ABB624AE0FB6A5F
:1043C0005B002C4AA2FB03235B08BB6242E0264B46
:1043D0001B6AFB61FB6903F44073B3F5807F08D16E
:1043E000FB6903F00203002B03D04FF40043BB62D0
:1043F0001FE0FB6903F44073B3F5007F09D11A4B4A
:104400005B6A03F00203002B03D049F64043BB6212
:104410000FE0FB6903F44073B3F5407F1CD1124BEE
:104420001B6803F40033002B16D04FF22443BB6209
:1044300012E011E0FFF778FE02460B4B5B689B0B26
:1044400003F0030301335B00B2FBF3F3BB6204E050
:1044500000BF02E000BF00E000BFBB6A184634376F
:10446000BD4690BD20CF00080010024000127A0027
:1044700000093D00ABAAAAAA80B582B000AF78605F
:104480007B68002B01D1012376E07B685B6A002BFF
:1044900008D17B685B68B3F5827F09D07B68002216
:1044A000DA6105E07B6800221A617B6800225A61AC
:1044B0007B6800229A627B6893F85130DBB2002B54
:1044C00006D17B68002283F850207868FEF712F846
:1044D0007B68022283F851207B681B681A687B681E
:1044E0001B6822F040021A607B685B6803F48272EA
:1044F0007B689B6803F404431A437B68DB6803F41E
:1045000000631A437B681B6903F002031A437B684C
:104510005B6903F001031A437B689B6903F4007332
:104520001A437B68DB6903F038031A437B681B6A14
:1045300003F0800342EA03017B689B6A03F40052A4
:104540007B681B680A431A607B689B691A0C7B684E
:104550001B6802F004025A607B681B68DA697B689A
:104560001B6822F40062DA617B6800225A657B686E
:10457000012283F85120002318460837BD4680BD2C
:1045800080B582B000AF78607B68002B01D1012339
:104590003FE07B6893F83D30DBB2002B06D17B68AF
:1045A000002283F83C207868FDF7EEFF7B68242228
:1045B00083F83D207B681B68DA687B681B6822F4FF
:1045C0000052DA60786800F005F97B681B681A69A8
:1045D0007B681B6822F490421A617B681B685A69E9
:1045E0007B681B6822F02A025A617B681B68DA68C4
:1045F0007B681B6842F40052DA607B6800221A6410
:104600007B68202283F83D207B68202283F83E20AF
:10461000002318460837BD4680BD80B58AB002AF7A
:10462000F860B9603B601346FB8000237B61FB6848
:1046300093F83D30DBB2202B7CD1BB68002B02D03D
:10464000FB88002B01D1012375E0FB6893F83C3017
:10465000012B01D102236EE0FB68012283F83C208C
:10466000FB6800221A64FB68212283F83D20FEF7D4
:104670004DF97861FB68FA889A84FB68FA88DA84D5
:10468000FB689B68B3F5805F08D1FB681B69002B52
:1046900004D10023FB61BB68BB6103E0BB68FB6125
:1046A0000023BB61FB68002283F83C202AE03B68C2
:1046B00000937B6900228021F86800F040F80346EF
:1046C000002B01D0032336E0FB69002B0BD1BB6923
:1046D0001B881A46FB681B68C2F308025A60BB6954
:1046E0000233BB6107E0FB691A78FB681B685A60FC
:1046F000FB690133FB61FB68DB8C9BB2013B9AB227
:10470000FB68DA84FB68DB8C9BB2002BCFD13B6863
:1047100000937B6900224021F86800F010F80346FE
:10472000002B01D0032306E0FB68202283F83D2004
:10473000002300E0022318462037BD4680BD80B527
:1047400084B000AFF860B9603B601346FB712CE0A9
:10475000BB69B3F1FF3F28D0BB69002B07D0FEF740
:10476000D5F802463B68D31ABA699A421DD2FB6853
:104770001B68DA68FB681B6822F4D072DA60FB6899
:104780001B685A69FB681B6822F001025A61FB68CA
:10479000202283F83D20FB68202283F83E20FB681E
:1047A000002283F83C2003230FE0FB681B681A6893
:1047B000BB681340BA689A420CBF01230023DBB2E6
:1047C0001A46FB799A42C3D0002318461037BD46DB
:1047D00080BD000080B584B000AF78607B681B6846
:1047E0001B6923F440517B68DA687B681B680A43C5
:1047F0001A617B689A687B681B691A437B685B69EE
:104800001343BB607B681B68DB6823F4B05323F061
:104810000C037A681268B9680B43D3607B681B6825
:104820005B6923F440717B689A697B681B680A4363
:104830005A617B681B682C4A934203D1FFF774FCD2
:10484000F86002E0FFF75CFCF860FA6813469B0032
:1048500013449A001A447B685B689B00B2FBF3F335
:10486000224AA2FB03235B091901FA6813469B0045
:1048700013449A001A447B685B689B00B2FBF3F216
:104880001A4BA3FB02035B09642000FB03F3D31A5A
:104890001B013233154AA2FB03235B0903F0F0032B
:1048A0001944FA6813469B0013449A001A447B6823
:1048B0005B689B00B2FBF3F20C4BA3FB02035B09AA
:1048C000642000FB03F3D31A1B013233074AA2FB17
:1048D00003235B0903F00F027B681B680A449A609C
:1048E00000BF1037BD4680BD003801401F85EB5129
:1048F00080B500AF0449054803F010FB03461A4693
:10490000034B1A7000BF80BDF82700202000002054
:10491000F427002080B400AF00231846BD4680BCB9
:104920007047000080B483B000AF0346FB71054BB5
:1049300001221A70034B1B78DBB218460C37BD46B8
:1049400080BC70471D00002080B483B000AF0346D8
:10495000FB71054B01221A70034B1B78DBB2184622
:104960000C37BD4680BC70471D00002080B485B068
:1049700000AFB9607A603B600346FB7300231846C2
:104980001437BD4680BC704780B485B000AFB960B5
:104990007A603B600346FB73002318461437BD461C
:1049A00080BC704780B485B000AF03463A60FB71AD
:1049B0000B46BB710123FB73FB7B18461437BD46C6
:1049C00080BC704780B584B000AF0346FB71FB79B3
:1049D000084A9B0013445B685B68FA7905490A44FE
:1049E000127A104698470346FB73FB7B1846103734
:1049F000BD4680BD1C28002080B584B000AF0346B2
:104A0000FB710023FB73FB790D4AD35C002B11D1A2
:104A1000FB790B4A0121D154FB79094A9B001344CD
:104A20005B681B68FA7906490A44127A104698476F
:104A30000346FB73FB7B18461037BD4680BD00BFA5
:104A40001C28002090B587B000AFB9607A603B6049
:104A50000346FB73FB7B0A4A9B0013445B689C681C
:104A6000FB7B074A1344187A3B687A68B968A04709
:104A70000346FB75FB7D18461C37BD4690BD00BF45
:104A80001C28002090B587B000AFB9607A603B6009
:104A90000346FB73FB7B0A4A9B0013445B68DC689C
:104AA000FB7B074A1344187A3B687A68B968A047C9
:104AB0000346FB75FB7D18461C37BD4690BD00BF05
:104AC0001C28002080B584B000AF03463A60FB711B
:104AD0000B46BB71FB79094A9B0013445B681B6959
:104AE000FA7906490A44107AB9793A689847034630
:104AF000FB73FB7B18461037BD4680BD1C28002089
:104B000080B487B000AFF860B9607A60FB687B6101
:104B1000BB683B6107E03A69531C3B617B69591CE8
:104B2000796112781A707B685A1E7A60002BF2D174
:104B300000BF00BF1C37BD4680BC704780B487B043
:104B400000AFF860B9607A60FB687B6105E07B6963
:104B50005A1C7A61BA68D2B21A707B685A1E7A609F
:104B6000002BF4D100BF00BF1C37BD4680BC70478E
:104B700080B489B000AFF860B9607A60FB68FB610F
:104B8000BB68BB6100237B6100BF7B685A1E7A60F3
:104B9000002B0DD0FB695A1CFA611B781946BB69C2
:104BA0005A1CBA611B78CB1A7B617B69002BECD055
:104BB0007B6918462437BD4680BC704780B483B0FB
:104BC00000AF7860396002E07B6801337B607B680E
:104BD0001B78002B05D07B681B781A463B689342F4
:104BE000F2D17B681B7818460C37BD4680BC7047F5
:104BF00080B485B000AF786039600023BB60BB68CB
:104C0000FB603BE03149FA6813465B0013449B00AC
:104C10000B441B68002B2CD02C49FA6813465B0010
:104C200013449B000B441A687B6803F580531B6890
:104C30009A4220D12549FA6813465B0013449B0031
:104C40000B4404331A687B6803F580539B689A42CF
:104C500011D11E49FA6813465B0013449B000B44B4
:104C600008331A887B6803F58053DB889A4202D1A7
:104C700007E00123BB60FB680133FB60FB68012B8D
:104C8000C0D9FB68022B09D1BB68002B02D13B685D
:104C9000022B01D1002313E0122311E03B68002B0B
:104CA0000BD10A49FA6813465B0013449B000B447E
:104CB0000A331B88B3F5807F01D1102300E0002365
:104CC00018461437BD4680BC704700BF042800203A
:104CD00080B483B000AF00237B6002E07B680133C7
:104CE0007B607B68012B09D80A497A6813465B0010
:104CF00013449B000B441B68002BEFD17B68022BF5
:104D000014BF01230023DBB218460C37BD4680BC1C
:104D1000704700BF0428002080B485B000AF7860E1
:104D200039600023FB602EE05849FA6813465B00A7
:104D300013449B000B441A687B6803F580531B687F
:104D40009A421DD15149FA6813465B0013449B00F7
:104D50000B4404331A687B6803F580539B689A42BE
:104D60000ED14A49FA6813465B0013449B000B447A
:104D700008331A887B6803F58053DB889A4206D093
:104D8000FB680133FB60FB68012BCDD900E000BF5D
:104D9000FB68022B48D10023FB6002E0FB68013373
:104DA000FB60FB68012B09D83849FA6813465B00A1
:104DB00013449B000B441B68002BEFD1FB68022BB4
:104DC00001D100235DE07B6803F5805319682F480B
:104DD000FA6813465B0013449B00034419607B6828
:104DE00003F5805399682948FA6813465B00134419
:104DF0009B000344043319607B6803F58053D88813
:104E00002249FA6813465B0013449B000B440833A5
:104E100002461A801D49FA6813465B0013449B0042
:104E20000B440A3300221A803B68002B0CD0174930
:104E3000FA6813465B0013449B000B440A331B883B
:104E4000002B01D000231CE03B68002B0BD10F4945
:104E5000FA6813465B0013449B000B440A331B881B
:104E6000013399B201E04FF480710848FA681346A3
:104E70005B0013449B0003440A330A461A80FB6814
:104E8000013318461437BD4680BC70470428002003
:104E900080B485B000AF78607B68013B7B607B6845
:104EA000012B2ED81B497A6813465B0013449B00E4
:104EB0000B440A331B88FB81FB89B3F5807F01D14A
:104EC0000023FB81FB89002B02D0FB89013BFB8186
:104ED00010497A6813465B0013449B000B440A3365
:104EE000FA891A80FB89002B08D10A497A6813468F
:104EF0005B0013449B000B4400221A6000237B7369
:104F000001E002237B737B7B18461437BD4680BCCF
:104F1000704700BF0428002080B485B000AF7860DF
:104F20000023FB6016E01049FA6813465B00134447
:104F30009B000B441B687A689A4208D10A49FA68B8
:104F400013465B0013449B000B4400221A60FB686D
:104F50000133FB60FB68012BE5D900BF00BF1437AC
:104F6000BD4680BC704700BF0428002080B586B0D5
:104F700000AF78600023FB737B6803F580531B79D7
:104F8000002B40D07B6803F58053DB6A7B617B6834
:104F900003F580535878796801237A69FFF772FD29
:104FA0000346002B02D00123FB732CE07B6803F542
:104FB000805300221A717B6803F580531B6A7A695B
:104FC000D21A7B6803F580539B699A421BD27B6897
:104FD00003F58053DB783B6112E07B6803F5805377
:104FE0009B697A6913447B617B6803F58053587829
:104FF000796801237A69FFF745FD3B69013B3B6115
:105000003B69012BE9D8FB7B18461837BD4680BDAC
:1050100080B584B000AF786039600023FB737B6893
:1050200003F58053DB6A3A689A421ED07868FFF72E
:105030009DFF0346FB73FB7B002B16D17B6803F5BA
:1050400080535878796801233A68FFF7FBFC0346E0
:10505000002B04D04FF0FF333B600123FB737B68D0
:1050600003F580531A463B68D362FB7B1846103722
:10507000BD4680BD80B584B000AF78607868FFF72A
:1050800075FF0346FB73FB7B002B40F0AD807B6814
:1050900003F580531B78032B40F098807B6803F561
:1050A00080535B79012B40F0918078687B6803F531
:1050B00080535B891A460021FFF740FD7B6855222B
:1050C00083F8FE217B68AA2283F8FF217B685222A5
:1050D0001A707B6852225A707B6861229A707B68D2
:1050E0004122DA707B68722283F8E4217B687222A5
:1050F00083F8E5217B68412283F8E6217B68612201
:1051000083F8E7217B6803F580531B69DAB27B687B
:1051100083F8E8217B6803F580531B699BB21B0A67
:105120009BB2DAB27B6883F8E9217B6803F5805390
:105130001B691B0CDAB27B6883F8EA217B6803F5F4
:1051400080531B691B0EDAB27B6883F8EB217B6806
:1051500003F58053DB68DAB27B6883F8EC217B6867
:1051600003F58053DB689BB21B0A9BB2DAB27B6803
:1051700083F8ED217B6803F58053DB681B0CDAB202
:105180007B6883F8EE217B6803F58053DB681B0E98
:10519000DAB27B6883F8EF217B6803F58053DB6923
:1051A00001337A6802F58052D3627B6803F580533D
:1051B000587879687B6803F58053DA6A0123FFF732
:1051C00061FC7B6803F5805300225A717B6803F50C
:1051D00080535B78002200211846FFF773FC0346DA
:1051E000002B01D00123FB73FB7B18461037BD4613
:1051F00080BD80B483B000AF786039603B68023B0B
:105200003B607B6803F580535B69023B3A689A42D6
:1052100001D300230CE07B6803F580539B781A468A
:105220003B6803FB02F27B6803F580539B6A1344DF
:1052300018460C37BD4680BC704780B586B000AFBD
:10524000786039603B68012B06D97B6803F5805391
:105250005B693A689A4202D301237B61E4E04FF034
:10526000FF337B617B6803F580531B78032B00F0D1
:105270009880032B00F3CE80012B02D0022B5FD04D
:10528000C8E03B68FB60FB685B08FA681344FB609E
:105290007B6803F580531A6A7B6803F580535B894A
:1052A0001946FB68B3FBF1F3134419467868FFF71E
:1052B000AFFE0346002B40F0B080FB685A1CFA603A
:1052C0007A6802F580525289B3FBF2F101FB02F2D7
:1052D0009B1A7A68D35CBB607B6803F580531A6ABB
:1052E0007B6803F580535B891946FB68B3FBF1F3D8
:1052F000134419467868FFF78BFE0346002B40F0F5
:105300008E807B6803F580535B891A46FB68B3FB8C
:10531000F2F101FB02F29B1A7A68D35C1B021A4677
:10532000BB681343BB603B6803F00103002B02D052
:10533000BB681B0902E0BB68C3F30B037B6173E02E
:105340007B6803F580531A6A7B6803F580535B8999
:105350005B089BB219463B68B3FBF1F31344194653
:105360007868FFF755FE0346002B5AD13B685B0077
:105370007A6802F580525289B3FBF2F101FB02F226
:105380009B1A7A6813443B613B6901331B781B020B
:105390001AB23B691B781BB213431BB29BB27B61F1
:1053A00042E07B6803F580531A6A7B6803F58053FB
:1053B0005B899B089BB219463B68B3FBF1F313442E
:1053C00019467868FFF724FE0346002B2BD13B6873
:1053D0009B007A6802F580525289B3FBF2F101FB1F
:1053E00002F29B1A7A6813443B613B6903331B78D2
:1053F0001A063B6902331B781B0413433A690132D6
:105400001278120213433A691278134323F070435F
:105410007B6109E001237B6106E000BF04E000BF7F
:1054200002E000BF00E000BF7B6918461837BD46A8
:1054300080BD80B588B000AFF860B9607A60BB68A5
:10544000012B06D9FB6803F580535B69BA689A4261
:1054500002D30223FB773AE1FB6803F580531B7804
:10546000032B00F0D080032B00F32781012B03D006
:10547000022B00F08F8020E1BB687B617B695B08B9
:105480007A6913447B61FB6803F580531A6AFB68F1
:1054900003F580535B8919467B69B3FBF1F3134431
:1054A0001946F868FFF7B4FD0346FB77FB7F002B36
:1054B00040F006817B695A1C7A61FA6802F58052D5
:1054C0005289B3FBF2F101FB02F29B1AFA68134412
:1054D000BB61BB6803F00103002B0DD0BB691B78D7
:1054E0005BB203F00F035AB27B68DBB21B015BB205
:1054F00013435BB2DBB201E07B68DBB2BA691370C5
:10550000FB6803F5805301221A71FB6803F5805391
:105510001A6AFB6803F580535B8919467B69B3FB04
:10552000F1F313441946F868FFF772FD0346FB7761
:10553000FB7F002B40F0C680FB6803F580535B893E
:105540001A467B69B3FBF2F101FB02F29B1AFA687F
:105550001344BB61BB6803F00103002B03D07B68DD
:105560001B09DBB20EE0BB691B785BB223F00F03B3
:105570005AB27B681B0A5BB203F00F035BB21343A2
:105580005BB2DBB2BA691370FB6803F5805301228A
:105590001A719CE0FB6803F580531A6AFB6803F5F7
:1055A00080535B895B089BB21946BB68B3FBF1F380
:1055B00013441946F868FFF72BFD0346FB77FB7F82
:1055C000002B40F08180BB685B00FA6802F58052D6
:1055D0005289B3FBF2F101FB02F29B1AFA68134401
:1055E000BB617B68DAB2BB691A707B689BB21B0A2D
:1055F0009AB2BB690133D2B21A70FB6803F58053CB
:1056000001221A7163E0FB6803F580531A6AFB6894
:1056100003F580535B899B089BB21946BB68B3FBBB
:10562000F1F313441946F868FFF7F2FC0346FB77E1
:10563000FB7F002B4AD1BB689B00FA6802F58052C1
:105640005289B3FBF2F101FB02F29B1AFA68134490
:10565000BB61BB6903331B781A06BB6902331B7835
:105660001B041343BA690132127812021343BA6958
:105670001278134303F070437A6813437B607B68AE
:10568000DAB2BB691A707B689BB21B0A9AB2BB691B
:105690000133D2B21A707B681A0CBB690233D2B2E2
:1056A0001A707B681A0EBB690333D2B21A70FB689A
:1056B00003F5805301221A7109E00223FB7706E00B
:1056C00000BF04E000BF02E000BF00E000BFFB7FBE
:1056D00018462037BD4680BD80B584B000AF7860E5
:1056E00039603B68012B06D97B6803F580535B6901
:1056F0003A689A4202D30223FB7349E00023FB730A
:105700003BE039687868FFF798FDB860BB68002B0C
:105710003BD0BB68012B02D10223FB7338E0BB688E
:10572000B3F1FF3F02D10123FB7331E0002239685E
:105730007868FFF77EFE0346FB73FB7B002B26D1C8
:105740007B6803F580531B69B3F1FF3F13D07B687F
:1057500003F580531B6901337A6802F580521361A7
:105760007B6803F580535B7943F00103DAB27B6811
:1057700003F580535A71BB683B607B6803F5805327
:105780005B693A689A42BCD302E000BF00E000BF08
:10579000FB7B18461037BD4680BD80B586B000AF94
:1057A000786039603B68002B11D17B6803F580532A
:1057B000DB683B613B69002B06D07B6803F58053B7
:1057C0005B693A699A421DD301233B611AE039684B
:1057D0007868FFF732FDB860BB68012B01D8012360
:1057E0007FE0BB68B3F1FF3F01D1BB6879E07B6824
:1057F00003F580535B69BA689A4201D2BB6870E0D6
:105800003B683B613B697B617B6901337B617B6802
:1058100003F580535B697A699A4207D302237B615F
:105820007A693B699A4201D900235AE0796978681C
:10583000FFF703FDB860BB68002B0ED0BB68B3F167
:10584000FF3F02D0BB68012B01D1BB6849E07A69F8
:105850003B699A42D8D1002343E000BF6FF0704209
:1058600079697868FFF7E5FD0346FB73FB7B002B46
:1058700009D13B68002B06D07A6939687868FFF750
:10588000D8FD0346FB73FB7B002B21D17B6803F51E
:1058900080531A467B69D3607B6803F580531B698C
:1058A000B3F1FF3F1CD07B6803F580531B69013BBC
:1058B0007A6802F5805213617B6803F580535B7947
:1058C00043F00103DAB27B6803F580535A7107E0B5
:1058D000FB7B012B02D14FF0FF3300E001237B6102
:1058E0007B6918461837BD4680BD80B487B000AFCD
:1058F000786039607B6803F580535B6A04333B61F1
:105900007B6803F580531B6803F580535B891A4657
:105910003B68B3FBF2F37A6802F58052126802F535
:1059200080529278B3FBF2F37B613B691A1D3A61B6
:105930001B68FB60FB68002B01D1002310E07A6933
:10594000FB689A4207D37A69FB68D31A7B613B698B
:1059500004333B61E9E700BF3B691A687B69134484
:1059600018461C37BD4680BC704780B586B000AF76
:10597000786039603B689AB27B6803F58053DA80BF
:105980007B6803F580539B687B617B69012B09D0A1
:105990007B6803F580531B6803F580535B697A6964
:1059A0009A4201D30223AAE07B69002B10D17B68C5
:1059B00003F580531B6803F580531B78032B07D135
:1059C0007B6803F580531B6803F580535B6A7B613A
:1059D0007B69002B15D17B6803F580531B6803F5A9
:1059E00080531B891A463B68934201D3022386E009
:1059F0007B6803F580531B6803F580535B6A3B614A
:105A000043E07B6803F580531B6803F580535B8993
:105A10005B099BB21A467B6803F580531B6803F54C
:105A200080539B7802FB03F3FB6021E07B6803F566
:105A300080531B6879691846FFF7FFFB78617B6923
:105A4000B3F1FF3F01D1012359E07B69012B09D953
:105A50007B6803F580531B6803F580535B697A69A3
:105A60009A4201D302234AE03A68FB68D31A3B60AA
:105A70003A68FB689A42D9D27B6803F580531B6869
:105A800079691846FFF7B5FB38617B6803F58053E9
:105A90001A467B69D3603B69002B01D102232EE0BB
:105AA0007B6803F580531B6803F580535B895B09B2
:105AB0009BB21A463B68B3FBF2F23B6913447A6827
:105AC00002F5805213617B6803F580531B6818460A
:105AD0007B6803F580531B6803F580535B895B0982
